:100000000C94FF010C9427020C9427020C942702F5
:100010000C9427020C9427020C9427020C942702BC
:100020000C9427020C9427020C9427020C942702AC
:100030000C9427020C9427020C9427020C9427029C
:100040000C94A1160C9427020C9402070C94DC0665
:100050000C9427020C9427020C9427020C9427027C
:100060000C9427020C942702B307B307C707DD07D8
:10007000D307E707F107120828084C084C0805A821
:100080004CCDB2D44EB93836A9020C50B9918688FD
:10009000083CA6AAAA2ABE000000803F0664EC1B0A
:1000A0003C04BC163E3BE5B93CC93C37C29E5A3DB8
:1000B000660498083EEA69AAAA3E000000803F074D
:1000C000634236B79BD8A71A39685618AEBAAB55F3
:1000D0008C1D3CB7CC5763BD6DEDFD753EF61772B8
:1000E00031BF000000803F08000000BE922449128A
:1000F0003EABAAAA2ABECDCCCC4C3E00000080BEAE
:10010000ABAAAAAA3E00000000BF000000803F008A
:1001100000000000084178D3BB4387D1133D190E7E
:100120003CC3BD4282AD2B3E68EC8276BED98FE1E6
:10013000A93E4C80EFFFBE01C4FF7F3F00000000DE
:100140000000464F4C4C5F49445F3200464F4C4CD8
:100150005F49445F3100464F4C4C5F4E554D005057
:100160004F535F5459504500544B4F46465F414CE6
:1001700054004442475F54585400494E49545F501C
:100180004F53004F4646535F5A004F4646535F5900
:10019000004F4646535F580091018A0183017A015E
:1001A000720168015F0156014C014201327C8900F5
:1001B000EDD9687700000059000000000000000041
:1001C000D69FDCA81817AA90437327F6B968EDF4F8
:1001D000DED409FEE61C1C84DDE80B9929274EC4F9
:1001E00000000F03000000000099B7333B76941520
:1001F00000F37C000026149E988F0000006A3116E0
:100200008F8C059600E7B73F360000000000000025
:10021000AF669ED0385D8A6C20B95422AE7CED0466
:100220004C80387486EDCBFA57CBDC19E22E1DDFFB
:100230005506E5CB01C36DA8B52F48837F00679AAB
:10024000B2C886DBD0BC5416131586004E44BD7F61
:100250009A15159001EA49B51653A78AEAF02FBD01
:1002600034AEE5559FBA48000000005C24476200A8
:100270000000000086CD000000000000000000002B
:100280000000456532CA11A20E0000000000CF0038
:100290000000A3699723000000000000005A685581
:1002A0005F82B85108CC31AA2C532E00091F0C00D4
:1002B0000E1C0320000000060000000000000000EB
:1002C000140219171E65161A100E1C201C1C161677
:1002D0001506062504040202040202030D0C25047F
:1002E00000001B190000000000441AB9E52A0604AA
:1002F000000B1200002514232103000000162725FF
:1003000035333533001C382A21000000000000007E
:100310001A202014203E2C405409FE100C242C409E
:1003200016060E0C6102027123064F2323160DFFE1
:100330000E122B08160E242B2920F30E5D006424C8
:100340003C1E2A08040C0F0D060F0E000C03081C9F
:100350002C0309160C122242620830130314181DD4
:100360002D042802CE071D000000001B2C161900CA
:10037000000000002A0E0000000000000000000045
:1003800000000803030607020E000000000008003A
:1003900000002A283FB6000000000000002034358D
:1003A00006022613FE241E1212330900000000006C
:1003B000240027002A0000000000250028002B0050
:1003C00004040404040404040202020202020303FB
:1003D0000303030301020408102040800102040803
:1003E0001020010204081020000000080002010093
:1003F000000304070000000000000000EB161124B9
:100400001FBECFEFD8E0DEBFCDBF11E0A0E0B1E06E
:10041000E2E0FDE302C005900D92A233B107D9F7E7
:1004200023E0A2E3B1E001C01D92A83EB207E1F7CC
:1004300011E0CFEFD1E004C02197FE010E94B01976
:10044000CE3FD107C9F70E9418170C947F1E0C9459
:100450000000CF92DF92EF92FF920F931F93CF9302
:10046000DF936C017A018B01C0E0D0E0CE15DF058F
:1004700089F0D8016D918D01D601ED91FC9101902B
:10048000F081E02DC6010995892B11F47E0102C08F
:100490002196ECCFC701DF91CF911F910F91FF9073
:1004A000EF90DF90CF900895FC01918D828D981789
:1004B00061F0828DDF01A80FB11D5D968C91928D48
:1004C0009F5F9F77928F90E008958FEF9FEF089541
:1004D000FC01918D828D981731F0828DE80FF11D0E
:1004E000858D90E008958FEF9FEF0895FC01918D29
:1004F000228D892F90E080589F4F821B91098F7722
:100500009927089586EF92E00E94760221E0892BD8
:1005100009F420E0822F0895FC01848DDF01A80FEB
:10052000B11DA356BF4F2C91848D90E001968F731F
:100530009927848FA689B7892C93A089B1898C913A
:1005400080648C93938D848D981306C00288F38900
:10055000E02D80818F7D80830895EF92FF920F932D
:100560001F93CF93DF93EC0181E0888F9B8D8C8D5F
:10057000981305C0E889F989808185FD24C0F62E8D
:100580000B8D10E00F5F1F4F0F731127E02E8C8D26
:10059000E8120CC00FB607FCFACFE889F989808110
:1005A00085FFF5CFCE010E948C02F1CF8B8DFE012D
:1005B000E80FF11DE356FF4FF0820B8FEA89FB89AC
:1005C0008081806207C0EE89FF896083E889F989AC
:1005D00080818064808381E090E0DF91CF911F91E2
:1005E0000F91FF90EF900895CF93DF93EC01888DEA
:1005F0008823C9F0EA89FB89808185FD05C0A88927
:10060000B9898C9186FD0FC00FB607FCF5CF8081AC
:1006100085FFF2CFA889B9898C9185FFEDCFCE01F6
:100620000E948C02E7CFDF91CF91089580E090E0A7
:10063000892B29F00E94820281110C9400000895F8
:1006400090935B0280935A0281E0809359020E944A
:100650008A156093DC027093DD028093DE02909332
:10066000DF020895CF93DF93EC0181E00E946B13CA
:1006700081E080935802D0935302C09352020E94AB
:100680008A1560935402709355028093560290939A
:100690005702DF91CF9108950E944B1E2F923F92F7
:1006A0004F925F926F927F928F929F92AF92BF9282
:1006B000CF92DF92EF92FF920F931F93CF93DF932E
:1006C000CDB7DEB7AC970FB6F894DEBF0FBECDBF87
:1006D0002B013C0149015A0118018701DA86C986BC
:1006E00020E030E044E353E4C501B4010E94B719AF
:1006F00020E030E044EB53E40E942D1A0E949F1A40
:1007000028E631E0269FA001279F500D369F500D0F
:100710001124BA01550F880B990B0E94D71A9B011F
:10072000AC01C501B4010E94B6194B015C0125E37F
:100730003AEF4EE85CE3C301B2010E94CB1B6B01B0
:100740007C0125E33AEF4EE85CE3C501B4010E9469
:10075000CB1B6D877E878F87988B20E030E04AE344
:1007600053E4C501B4010E94B71920E030E040EC29
:1007700050E40E942D1A0E949F1AE985FA85718320
:10078000608320E030E040E652E4C301B2010E9401
:10079000C61B87FD24C020E030E040E852E4C301DE
:1007A000B2010E94231A87FF1AC020E030E040E423
:1007B00050E4C501B4010E94C61B87FD10C020E0B3
:1007C00030E040E451E4C501B4010E94231A87FFE0
:1007D00006C080E290E0E985FA859183808320E07D
:1007E00030E040E952E4C301B2010E94C61B87FD1C
:1007F00068C020E030E048EA52E4C301B2010E9440
:10080000231A87FF5EC020E030E0A901C501B401D2
:100810000E94C61B87FD0DC020E030E040E151E49E
:10082000C501B4010E94231A87FF03C08FE190E045
:1008300044C020E030E040E151E4C501B4010E9431
:10084000C61B87FD0DC020E030E048EA51E4C50139
:10085000B4010E94231A87FF03C081E290E02DC0FB
:1008600020E030E048EA51E4C501B4010E94C61B13
:1008700087FD0DC020E030E044E052E4C501B40142
:100880000E94231A87FF03C083E290E016C020E095
:1008900030E044E052E4C501B4010E94C61B87FD6C
:1008A00010C020E030E048E252E4C501B4010E94EB
:1008B000231A87FF06C085E290E0E985FA859183D7
:1008C0008083C701B6010E94881C9B01AC010E9475
:1008D000CB1B24ED3AEB4BE55BE30E94CB1B9B016A
:1008E000AC0160E070E080E89FE30E94B6190E94CE
:1008F000961C9B01AC0162E375EA82EC9AE40E94CB
:100900002D1A698F7A8F8B8F9C8FC701B6010E9439
:10091000D61C69837A838B839C839B01AC010E94E4
:10092000CB1B2B013C01C701B6010E94281A4B01C9
:100930005C019B01AC010E94CB1B20E138E74CE538
:100940005BE30E94CB1B6D837E838F839887E98551
:10095000FA858081918126E0289FB001299F700D42
:100960001124675B7109072E000C880B990B0E94FC
:10097000D71A25E33AEF4EE85CE30E94CB1B9B01BC
:10098000AC016D857E858F8598890E94B6199B0183
:10099000AC01C501B4010E94CB1B4B015C01A70156
:1009A0009601C701B6010E94B7190E94881C698B85
:1009B0007A8B8B8B9C8B20E030E040E850E4C701C1
:1009C000B6010E94CB1B0E94881C6D8F7E8F8F8F7B
:1009D00098A320E030E040EC50E4C701B6010E944B
:1009E000CB1B0E94881C69A37AA38BA39CA320E045
:1009F00030E040E450E4C501B4010E94381C69872E
:100A00007A878B879C87A3019201C301B2010E9460
:100A1000CB1B6D877E878F87988B20E030E040EA84
:100A200050E4C501B4010E94381C6D8B7E8B8F8B06
:100A3000988F29EC35EE4FE75FE3698D7A8D8B8DCA
:100A40009C8D0E94CB1B6DA37EA38FA398A7A301AF
:100A5000920160E070E080E89FE30E94B6192D816A
:100A60003E814F8158850E94B71929853A854B856B
:100A70005C850E94CB1B20E030E040EC50E40E94FB
:100A80002D1A9B01AC01C501B4010E94B7196987F9
:100A90007A878B879C8720E030E040E951E4C301EE
:100AA000B2010E94CB1B9B01AC0160E070E080EAC8
:100AB00090E40E94B6192D853E854F8558890E9485
:100AC000B71969A77AA78BA79CA720E030E040E977
:100AD00052E46D817E818F8198850E94CB1B9B01A2
:100AE000AC0169A57AA58BA59CA50E94B7192EEC2F
:100AF0003CEC47E45EE30E94B6192D893E894F899C
:100B0000588D0E94CB1B20E030E040EF52E40E9461
:100B10002D1A9B01AC0169857A858B859C850E9485
:100B2000B7199B01AC016DA17EA18FA198A50E9470
:100B3000CB1B20E034E244EF58E40E94B719F801DF
:100B4000608371838283938320E030E040E850E447
:100B5000C501B4010E94381C69877A878B879C87FE
:100B600020E030E040EC50E4C501B4010E94381CA4
:100B70006D8B7E8B8F8B988F28E039EC4FE75FE38E
:100B8000C701B6010E94CB1B6B017C012AE83FEE36
:100B900044EA5AE369897A898B899C890E94CB1B34
:100BA0009B01AC01C701B6010E94B6196B017C0123
:100BB0002EE631E441E355E36D8D7E8D8F8D98A156
:100BC0000E94CB1B9B01AC01C701B6010E94B71963
:100BD0006B017C0124E532E14CEE5FE269A17AA170
:100BE0008BA19CA10E94CB1B9B01AC01C701B6014C
:100BF0000E94B61922E335EA42EC5AE40E94CB1B6C
:100C0000698B7A8B8B8B9C8B29813A814B815C81A0
:100C1000698D7A8D8B8D9C8D0E94CB1B6B017C0125
:100C2000A5019401C501B4010E94CB1B20E030E076
:100C300040E05FE30E94CB1B4B015C01A3019201EA
:100C400060E070E080EA90E40E94B61969837A83DC
:100C50008B839C8320E030E040E151E46D817E8114
:100C60008F8198850E94CB1B9B01AC0169817A81A1
:100C70008B819C810E94B71969837A838B839C83C3
:100C80002D813E814F815885CA01B9010E94CB1B3D
:100C900020E030E040E850E40E94CB1B9B01AC0117
:100CA00069817A818B819C810E94B71929853A8557
:100CB0004B855C850E94CB1B20E030E040EC51E48A
:100CC0000E942D1A9B01AC01C501B4010E94B71905
:100CD0004B015C0120E030E048E652E4C301B20180
:100CE0000E94CB1B9B01AC0160E070E084E792E4C2
:100CF0000E94B6192D853E854F8558890E94B719E7
:100D00002B013C0120E030E046E154E46D817E811E
:100D10008F8198850E94CB1B9B01AC01C301B2015E
:100D20000E94B71922E639E14EE85FE30E94B61946
:100D30002D893E894F89588D0E94CB1B20E030E0E1
:100D400044E354E40E942D1A9B01AC01C501B40197
:100D50000E94B7199B01AC01C701B6010E94CB1BD1
:100D60009B01AC0169897A898B899C890E94B7199A
:100D700029EC35EE4FE75FE30E94CB1BF101608366
:100D8000718382839383AC960FB6F894DEBF0FBE57
:100D9000CDBFDF91CF911F910F91FF90EF90DF902A
:100DA000CF90BF90AF909F908F907F906F905F900B
:100DB0004F903F902F9008951F920F920FB60F9271
:100DC00011242F933F934F935F936F937F938F9350
:100DD0009F93AF93BF93EF93FF9386EF92E00E94B0
:100DE0008C02FF91EF91BF91AF919F918F917F9175
:100DF0006F915F914F913F912F910F900FBE0F9088
:100E00001F9018951F920F920FB60F9211242F93D7
:100E10008F939F93EF93FF93E0910603F091070365
:100E20008081E0910C03F0910D0382FD12C090814E
:100E300080910F038F5F8F7720911003821751F0FD
:100E4000E0910F03F0E0EA50FD4F958F80930F0380
:100E500001C08081FF91EF919F918F912F910F9011
:100E60000FBE0F901F90189590E1E2E3F1E0DF01D3
:100E70001D929A95E9F7E82FF0E0EE0FFF1FE85674
:100E8000FE4F6591749182E391E00C94621EFB0128
:100E90002081822790E1899F900111242827822FA9
:100EA00090E0582F44279C0163E0220F331F6A957E
:100EB000E1F742275327218130E02427352774E0CA
:100EC000959587957A95E1F782279327918380837B
:100ED00008952F923F924F925F926F927F928F92DE
:100EE0009F92AF92BF92CF92DF92EF92FF920F93B9
:100EF0001F93CF93DF93CDB7DEB7C258D2400FB662
:100F0000F894DEBF0FBECDBF9E012F5F3F4F19018A
:100F100081E191E08C0F9D1F0896C958DD4F9983A0
:100F20008883C757D240A1E2B2E0AC0FBD1F5896EC
:100F3000CF57DD4FB983A883C158D24086EF92E0E6
:100F40000E9454028C01F82E1092D3038091D60394
:100F50009091D7038B30910508F0D3C0FC01EC5C75
:100F6000FF4F0C94B019BEEF0B13CBC082E090E0A2
:100F70009093D7038093D6031092450100934401C8
:100F80008FEF9FEF9093430180934201BAC000938B
:100F900045011092D80362E471E0802F0E94470758
:100FA00084E090E03AC00093460162E471E0802F53
:100FB0000E94470783E090E030C00093470162E45D
:100FC00071E0802F0E94470785E090E026C00093E3
:100FD000480162E471E0802F0E94470786E090E0BC
:100FE0001CC0F801FF27E455FD4FE49180914501B5
:100FF0008E1719F081E090E010C00093490162E47F
:1010000071E0802F0E94470780914501811103C044
:1010100088E090E002C087E090E09093D70380934F
:10102000D6036FC0E091D80381E08E0F8093D80380
:10103000F0E0E65BFE4F008362E471E0802F0E94E7
:1010400047079091D8038091450198135AC0E0CF8B
:10105000E0914901F0E0E455FE4F849162E471E0D3
:101060000E9447078091420190914301992798017E
:1010700033272817390719F08AE090E002C089E089
:1010800090E09093D7038093D603E091D803F0E0EB
:10109000E65BFE4F008335C00A97B9F0E09143014B
:1010A000CF58DD4FE883C157D240CE58DD4F18826C
:1010B000C257D240C8019927CF58DD4F28813981C6
:1010C000C157D2408217930711F082E001C081E03E
:1010D0008093D30381E090E09093D7038093D6036D
:1010E000E091D803F0E0E55BFE4F008380E191E002
:1010F000E2E4F1E0DE01AF5EBE4F01900D92019798
:10110000E1F72091D303213099F480914601809337
:10111000D9038091DB039091DC03009721F41092B6
:10112000DE031092DD0301969093DC038093DB03D2
:1011300080914501CC5EDE4F8883C451D1408091BF
:10114000D8031092D503223009F084C090E0FC014E
:10115000E55BFE4F4081042E000C550B542F4427B5
:10116000FC01E65BFE4F2081022E000C330BCA010E
:10117000822B932BCF5EDE4F99838883C151D14060
:1011800081E08093D5031092D3033EEFF3125BC04E
:1011900082E090E09093D7038093D60310924501AC
:1011A0008FEF9FEF90934301809342012AC0CA5E64
:1011B000DE4F8881C651D140E92CF12C8E9C8001F4
:1011C0008F9C100D1124D801AB58BD4F5D019C912F
:1011D000891709F445C093942091F302921638F3CD
:1011E000CA5EDE4F9881C651D140913009F4D1C01A
:1011F000CA5EDE4F8881C651D1408F3F11F40C94F6
:101200005D1286EF92E00E947602181619060CF421
:1012100095CECE57DD4F0FB6F894DEBF0FBECDBFD3
:10122000DF91CF911F910F91FF90EF90DF90CF90C2
:10123000BF90AF909F908F907F906F905F904F90F6
:101240003F902F90089581E090E09093D703809392
:10125000D603D7CF2223A9F2912C9EE2892EBCCFB0
:10126000C85EDE4F9881C851D140992309F46EC001
:10127000913209F0B0CFC75DDE4F688179818A81F4
:101280009B81C952D1400E94D71A20E030E04AE742
:1012900054E40E942D1AD5015A966D937D938D9337
:1012A0009C935D97F801EB56FD4F6F019801255710
:1012B0003D4F790109571D4FCF5DDE4F6881798120
:1012C0008A819B81C152D1400E94D71A20E836E919
:1012D00048E15BE40E942D1A2B013C01C35EDE4F06
:1012E000688179818A819B81CD51D1400E94D71A32
:1012F00020E836E948E15BE40E942D1AA30192013F
:101300000E944E032EEF3CE64FE75FE3D501529675
:101310006D917D918D919C9155970E94CB1BF5010C
:10132000628B738B848B958B2DE03AED4FE75FE3F7
:1013300066897789808D918D0E94CB1BD501569649
:101340006D937D938D939C93599745CFFD0191812A
:10135000911111C021E021839091A4029F5F90938D
:10136000A4020E94F6148091F002813021F480E101
:1013700091E00E942F140E948A158E9CF0018F9C90
:10138000F00D1124EB58FD4F6283738384839583A2
:1013900022CFC85EDE4F8881C851D140813209F426
:1013A00002C78332B9F0811123CF8091A30281114A
:1013B00006C09093A30288EE93E00E9432030E943D
:1013C0008A156093A8027093A9028093AA02909351
:1013D000AB020ECFC95DDE4F88819981C752D140E3
:1013E0008D3DB5E09B0708F49DC680915C0284307A
:1013F00009F4FECE909159029111FACE813009F490
:101400009EC038F0823009F4E7C0833009F45FC130
:10141000EFCE8091B8029091B902A091BA02B0913A
:10142000BB028093AC029093AD02A093AE02B09346
:10143000AF028091BC029091BD02A091BE02B0911A
:10144000BF028093B0029093B102A093B202B09316
:10145000B3028091C0029091C102A091C202B091EA
:10146000C3028093B4029093B502A093B602B093E6
:10147000B70288EC90E00E943203512CFEE2DF2E8E
:10148000A9E5CA2EBBE07B2E10E1E12EFF24F394E8
:101490000CE5A02EB12C662463940CE48EED882E0E
:1014A000912C8091F302581608F046C0D59CF001AB
:1014B0001124EB58FD4F10818091F002813021F40E
:1014C00083E191E00E942F1484E090E0A0E0B0E07E
:1014D00089879A87AB87BC871D87CE86788649E542
:1014E00066E0C1010E94F112C1010E94B313D10153
:1014F000F7011D923197E9F7BEA2ADA21FA369A61D
:10150000088748E961E2C1010E94F112C1010E940D
:10151000B313D101F7011D923197E9F79EA28DA275
:101520001FA3088748E961E2C1010E94F112C101CD
:101530000E94B3135394B5CF84EF91E0C5C010E07F
:101540000EE270E9E72EFF24F394ECE4DE2E8091A6
:10155000F3021817F0F5019FF0011124EB58FD4F2D
:10156000C0808091F002813021F486E191E00E94F8
:101570002F1480E090E0A0E8BFE389879A87AB87CB
:10158000BC871D861E861F86188A198A1A8A1B8A9E
:101590001C8A1D8A1E8A1F8A188E198E1A8E1B8E0F
:1015A0001C8E1D8E1E8E1F8E18A219A21AA21BA29F
:1015B0001CA2FEA2EDA2CFA218A619A6D88648E9C1
:1015C00061E2C1010E94F112C1010E94B3131F5FC9
:1015D000BECF88EE93E078C010E04EE2A42E56E134
:1015E000E52EF12C0CE460E1C62EDD24D39480912D
:1015F000F3026091F102181708F05EC0A19EF0019D
:101600001124EB58FD4FB08070E080E090E00E9424
:10161000D51A2B013C018091F002813021F489E13F
:1016200091E00E942F1419861A861B861C861D863F
:101630001E861F86188A198A1A8A1B8A1C8A1D8A86
:101640001E8A1F8A188E198E1A8E1B8E1C8E1D8E56
:101650001E8E1F8E18A249A25AA26BA27CA2FEA2C5
:10166000EDA2BFA218A619A6088748E961E2C10148
:101670000E94F112C1010E94B313D101F6011D9223
:101680003197E9F749A25AA26BA27CA2FEA2EDA271
:10169000BFA2088748E961E2C1010E94F112C101BD
:1016A0000E94B3138091F002813021F48CE191E02B
:1016B0000E942F141F5F9BCF88EE93E09C01629FD6
:1016C000C001639F900D11240E94200391CD809151
:1016D000EF02882349F0813009F020C5C25ADD4F5E
:1016E0001882CE55D2402CC0222309F417C5809110
:1016F000870290918802A0918902B0918A0280931A
:101700007B0290937C02A0937D02B0937E02809135
:101710008B0290918C02A0918D02B0918E028093E9
:101720007F0290938002A0938102B0938202109274
:101730008302109284021092850210928602EEC4F7
:101740008091F302C25ADD4F3881CE55D24038170E
:1017500008F0E4C4C25ADD4F3881CE55D240A32EE2
:10176000B12C6091EC0270E080E090E00E94D71A0A
:101770002091AC023091AD024091AE025091AF0287
:101780000E94B7196B017C018EE28A9D80018B9DBE
:10179000100D11240B581D4FD8011696CD92DD92D5
:1017A000ED92FC9219976091ED0270E080E090E07C
:1017B0000E94D71A2091B0023091B1024091B2023A
:1017C0005091B3020E94B719C65ADD4F68837983DE
:1017D0008A839B83CA55D240F801628773878487C6
:1017E00095876091EE0270E080E090E00E94D71A49
:1017F0002091B4023091B5024091B6025091B702E7
:101800000E94B719C459DD4F688379838A839B830B
:10181000CC56D240D8011E966D937D938D939C93A8
:101820005197BC91C059DD4FB883C057D240009149
:10183000C6021091C7020E948A1569877A878B8732
:101840009C8720E836E948E15BE4C701B6010E94C5
:10185000CB1B0E949F1A6D877E878F87988B20E80D
:1018600036E948E15BE4C65ADD4F688179818A81B7
:101870009B81CA55D2400E94CB1B0E949F1A698B44
:101880007A8B8B8B9C8BC459DD4F88819981AA817F
:10189000BB81CC56D2408D8B9E8BAF8BB88F198E6F
:1018A0001A8E1B8E1C8E1D8E1E8E1F8E18A219A2C4
:1018B0001AA21BA21CA21DA21EA21FA218A619A634
:1018C0001AA61BA61CA61DA61EA61FA618AA19AA04
:1018D0001AAA1BAA1CAA1DAA1EAA1FAA18AEA8EF04
:1018E000BFE0BAAFA9AFC059DD4FB881C057D240F1
:1018F000BBAF1CAEE6E0EDAFF6E5F88745E065E38B
:10190000C1010E94F112C1010E94B313D101E0E1B3
:10191000F1E01D923197E9F72EEF3CE64FE75FE3E8
:10192000C701B6010E942D1A29EC35EE4FE75FE39F
:101930000E942D1A27E63BE742EC5AE40E942D1A3A
:101940006B017C019B01AC010E94B7190E94881CAD
:101950002B013C0120E030E040E850E4C701B60133
:101960000E94CB1B0E94881C4B015C0120E030E0F0
:1019700040EC50E4C701B6010E94CB1B0E94881CBA
:10198000CA5ADD4F688379838A839B83C655D240C8
:101990002FEE32E145EA5AE3C301B2010E94CB1BAC
:1019A0009B01AC01C701B6010E94B7196B017C0114
:1019B00023EF3DE548E755E3C501B4010E94CB1B89
:1019C0009B01AC01C701B6010E94B7196B017C01F4
:1019D00028E937EE4FE750E3CA5ADD4F6881798135
:1019E0008A819B81C655D2400E94CB1B9B01AC01D2
:1019F000C701B6010E94B719C05ADD4F68837983C9
:101A00008A839B83C056D2400E94881C4B015C0194
:101A10009B01AC010E94CB1B24ED3AEB4BE55BE351
:101A20000E94CB1B9B01AC0160E070E080E89FE36B
:101A30000E94B6190E94961C9B01AC0162E375EAF4
:101A400082EC9AE40E942D1ACC59DD4F6883798389
:101A50008A839B83C456D240C05ADD4F6881798106
:101A60008A819B81C056D2400E94D61C6B017C01AA
:101A70009B01AC010E94CB1BCA5ADD4F688379835E
:101A80008A839B83C655D240C05ADD4F68817981D5
:101A90008A819B81C056D2400E94281AC859DD4FC6
:101AA000688379838A839B83C856D2409B01AC01AB
:101AB0000E94CB1B20E138E74CE55BE30E94CB1B87
:101AC0002B013C0124ED3AEB4BE55BE3C501B4018E
:101AD0000E94CB1B9B01AC0160E070E080E89FE3BB
:101AE0000E94B61920E030E040EC5FE30E94381C11
:101AF0004B015C012DE03AED4FE75FE3C65ADD4F45
:101B0000688179818A819B81CA55D2400E942D1AB1
:101B100020E034E244EF58E40E94B619C65ADD4F83
:101B2000688379838A839B83CA55D24029EC35EE3A
:101B30004FE75FE3CC59DD4F688179818A819B81D2
:101B4000C456D2400E94CB1B9B01AC01C65ADD4F4C
:101B5000688179818A819B81CA55D2400E942D1A61
:101B6000C65ADD4F688379838A839B83CA55D240E6
:101B700020E030E040E850E40E94381CC758DD4FB8
:101B8000688379838A839B83C957D240CA5ADD4FC1
:101B9000288139814A815B81C655D240CA01B90189
:101BA0000E94CB1BCD58DD4F688379838A839B834A
:101BB000C357D24020E030E040EC50E4C65ADD4F3D
:101BC000688179818A819B81CA55D2400E94381CE4
:101BD000C358DD4F688379838A839B83CD57D24076
:101BE000A7019601CC59DD4F688179818A819B815B
:101BF000C456D2400E94CB1B6B017C01A50194010D
:101C000060E27EEF81EC9AE40E942D1A9B01AC0108
:101C1000C701B6010E942D1ACC59DD4F6883798324
:101C20008A839B83C456D240C65ADD4F28813981AE
:101C30004A815B81CA55D240CA01B9010E94CB1BBF
:101C400020E030E040E05FE30E94CB1B6B017C01B1
:101C500020E030E040E450E4CA5ADD4F68817981E9
:101C60008A819B81C655D2400E94CB1B20E030E088
:101C700040EA50E40E94B7194B015C0120E030E0DB
:101C800040E251E4C301B2010E94CB1B9B01AC01B5
:101C9000C501B4010E94B7194B015C0120E030E09E
:101CA00040E850E4C301B2010E94CB1BA3019201A2
:101CB0000E94CB1B9B01AC01C501B4010E94B61967
:101CC00022E137E048EF5CE30E94B619C758DD4FC8
:101CD000288139814A815B81C957D2400E94CB1B40
:101CE00020E030E040EC51E40E942D1A9B01AC0151
:101CF000C701B6010E94B6196B017C0120E030E0FB
:101D000044EB52E4CA5ADD4F688179818A819B8114
:101D1000C655D2400E94CB1B20E030E044E752E49D
:101D20000E94B7194B015C0120E030E045E953E423
:101D3000C301B2010E94CB1B9B01AC01C501B401E0
:101D40000E94B7194B015C0120E030E044E352E40B
:101D5000CD58DD4F688179818A819B81C357D240FC
:101D60000E94CB1B9B01AC01C501B4010E94B719B5
:101D700020E336E049E55FE30E94B6194B015C01C0
:101D8000A3019201C301B2010E94CB1B20E030E00D
:101D900040E450E40E94CB1B9B01AC01C501B4019F
:101DA0000E94B619C358DD4F288139814A815B8171
:101DB000CD57D2400E94CB1B20E030E044E354E4F6
:101DC0000E942D1A9B01AC01C701B6010E94B719F0
:101DD0009B01AC01CC59DD4F688179818A819B815F
:101DE000C456D2400E94CB1B9B01AC01C05ADD4FB0
:101DF000688179818A819B81C056D2400E94B61940
:101E0000C05ADD4F688379838A839B83C056D24052
:101E100020E030E040E450E4C65ADD4F688179812B
:101E20008A819B81CA55D2400E94381C6B017C017B
:101E300020E030E040EA50E4C65ADD4F6881798105
:101E40008A819B81CA55D2400E94381CCC59DD4FF3
:101E5000688379838A839B83C456D240CA5ADD4FF4
:101E6000288139814A815B81C655D240CA01B901B6
:101E70000E94B71920E030E040E85FE30E94B71904
:101E8000A30192010E94B719A70196010E94CB1BE2
:101E900020E030E040EC50E40E942D1A9B01AC01A0
:101EA000C65ADD4F688179818A819B81CA55D240AB
:101EB0000E94B6196B017C01A3019201C301B2011A
:101EC0000E94B7199B01AC0160E070E080EA90E4E9
:101ED0000E94B6194B015C0120E030E040EE51E475
:101EE000CA5ADD4F688179818A819B81C655D2406B
:101EF0000E94CB1B9B01AC01C501B4010E94B71924
:101F00004B015C0120E030E040E450E4C301B20149
:101F10000E94CB1BA30192010E94CB1B9B01AC0131
:101F2000C501B4010E94B61920E138E74CED5CE32D
:101F30000E94B7194B015C0120E030E040EC51E415
:101F4000CD58DD4F688179818A819B81C357D2400A
:101F50000E94CB1B9B01AC01C501B4010E94B719C3
:101F6000CC59DD4F288139814A815B81C456D240EA
:101F70000E94CB1B20E030E040EF52E40E942D1A7B
:101F80009B01AC01C701B6010E94B719C859DD4FCA
:101F9000288139814A815B81C856D2400E942D1A1E
:101FA00020EE3EE245E652E40E94CB1B6B017C0131
:101FB00020EE3EE245E652E4C05ADD4F6881798169
:101FC0008A819B81C056D2400E94CB1B20E836E913
:101FD00048E15BE40E94CB1B0E949F1ACF5DDD4F5E
:101FE000688379838A839B83C152D240F6E0F09F55
:101FF000B001F19F700D1124675B7109072E000C71
:10200000880B990B0E94D71AA70196010E94B71955
:1020100020E836E948E15BE40E94CB1B0E949F1A4E
:10202000CB5DDD4F688379838A839B83C552D24021
:10203000C459DD4F688179818A819B81CC56D24019
:102040000E949F1AC75DDD4F688379838A839B83D3
:10205000C952D240C35DDD4F188219821A821B8299
:10206000CD52D240CF5CDD4F188219821A821B827A
:10207000C153D240CB5CDD4F188219821A821B8279
:10208000C553D240C75BDD4F188219821A821B826A
:10209000C954D240C35BDD4F188219821A821B8259
:1020A000CD54D240CF5ADD4F188219821A821B823A
:1020B000C155D240C059DD4F2881C057D240CB5ABC
:1020C000DD4F2883C555D240CF57DD4FA881B98158
:1020D000C158D240E0E11D92EA95E9F785E3FE019F
:1020E000EF5DFD4FDE01199601900D928A95E1F7A3
:1020F000F3EFF88745E565E3C1010E94F112C101E4
:102100000E94B313C25ADD4F2881CE55D2402F5FB3
:10211000C25ADD4F2883CE55D24012CB84E0809343
:102120005C0266C88C3D954009F462C880915C02EF
:10213000843009F05DC880915902811159C810920C
:10214000AC021092AD021092AE021092AF02109249
:10215000B0021092B1021092B2021092B3028091BA
:10216000F002813021F48FE191E00E942F1410E001
:102170000EE28091F302181750F4019FF001112430
:10218000EB58FD4F80810E9421151F5FF2CF85E043
:1021900080935C0288EE93E00E94200388EC90E03C
:1021A0000E94320325C88091D8029091D902A09153
:1021B000DA02B091DB028093D4029093D502A0930F
:1021C000D602B093D7020E948A156093D80270930A
:1021D000D9028093DA029093DB024091D8025091A9
:1021E000D9026091DA027091DB028091D402909161
:1021F000D502A091D602B091D702FA01E81BF90BE3
:10220000C25ADD4FF983E883CE55D240C75DDE4F19
:10221000688179818A819B81C952D1400E94D71AF5
:1022200020E030E04AE754E40E942D1A6093C00297
:102230007093C1028093C2029093C302CF5DDE4FC0
:10224000688179818A819B81C152D1400E94D71ACD
:1022500020E836E948E15BE40E942D1A4B015C015D
:10226000C35EDE4F688179818A819B81CD51D140E7
:102270000E94D71A20E836E948E15BE40E942D1A53
:1022800026ECC22E22E0D22E3CEBE32E32E0F32EDF
:1022900008EB12E0A50194010E944E032EEF3CE6EC
:1022A0004FE75FE36091B8027091B9028091BA0282
:1022B0009091BB020E94CB1B2B013C016093B802A2
:1022C0007093B9028093BA029093BB022DE03AED6D
:1022D0004FE75FE36091BC027091BD028091BE0246
:1022E0009091BF020E94CB1B4B015C016093BC022A
:1022F0007093BD028093BE029093BF02CD5CDE4F0F
:1023000088819981C353D1409093C5028093C402C0
:10231000C35DDE4F68817981CD52D140072E000C1C
:10232000880B990B0E94D71ACA5ADD4F68837983AC
:102330008A839B83C655D2406093C8027093C902BA
:102340008093CA029093CB02C15DDE4F6881798190
:10235000CF52D140072E000C880B990B0E94D71A40
:10236000C65ADD4F688379838A839B83CA55D240DE
:102370006093CC027093CD028093CE029093CF02F3
:10238000CF5CDE4F68817981C153D140072E000CAC
:10239000880B990B0E94D71A6B017C016093D002C5
:1023A0007093D1028093D2029093D3022091AC0219
:1023B0003091AD024091AE025091AF02C301B20123
:1023C0000E94B6196093690270936A0280936B024F
:1023D00090936C022091B0023091B1024091B20210
:1023E0005091B302C501B4010E94B61960936D0209
:1023F00070936E0280936F02909370022091B402EA
:102400003091B5024091B6025091B7026091C0027E
:102410007091C1028091C2029091C3020E94B619CC
:1024200060937102709372028093730290937402AE
:10243000C25ADD4F28813981CE55D240B90180E0A2
:1024400090E00E94D51A4B015C019B01AC01CA5A75
:10245000DD4F688179818A819B81C655D2400E9477
:10246000CB1B60935D0270935E0280935F0290933A
:102470006002A5019401C65ADD4F688179818A8185
:102480009B81CA55D2400E94CB1B6093610270931E
:1024900062028093630290936402A5019401C701D4
:1024A000B6010E94CB1B6093650270936602809315
:1024B0006702909368020C94F808C85EDE4F88812A
:1024C000C851D140853109F450C0873129F0843199
:1024D00011F00C94010952C088EC90E00E94320384
:1024E000CC5EDE4F4881C451D140483108F047E10D
:1024F00087E1D1011D928A95E9F750E0C958DD4F77
:1025000068817981C757D240C1010E94501E10E0F6
:10251000812F0E943407BE01695F7F4F0E94591EC0
:10252000892BF1F4E12EF12C69817A818B819C81D8
:102530000E94A61AF701E451FD4F6083C7010E9473
:10254000711E812F0E9478148091F002813011F069
:102550000C94010982E291E00E942F140C9401096D
:102560001F5F1A30A9F60C94010910E0812F0E9418
:1025700078141F5F1A30D1F70C940109CC5EDE4F3E
:102580004881C451D140453108F044E184E1F10172
:1025900011928A95E9F750E0C958DD4F6881798139
:1025A000C757D240C1010E94501E89819A818F3F36
:1025B000FFEF9F0791F410E0812F0E943407BE01C6
:1025C0006B5F7F4F0E94591E892B11F4812F05C02C
:1025D0001F5F1A3089F70C9401090E9478140C943B
:1025E00001098F929F92AF92BF92CF92DF92EF92AA
:1025F000FF920F931F93CF93DF9300D0CDB7DEB739
:102600008C01D62EC42E8EEFD80112968C93129781
:1026100013966C93139783E615968C9315971696DD
:102620001C9216979091DA0314969C939F5F909357
:10263000DA038FEF9FEF9A8389835801B3E0AB0EE3
:10264000B11C7801E8E0EE0EF11CAE14BF0449F0B5
:10265000BE016F5F7F4FD5018D915D010E944707DD
:10266000F4CF89819A81F801918380835701838116
:102670004701880E911CB801A814B90431F0D501A6
:102680008D915D010E944707F6CF8C2D0E94470770
:10269000F8018381F701E80FF11DD8018C91808347
:1026A00013968C911397F701E80FF11D11968C91F9
:1026B00081838D2D90E008960F900F90DF91CF9140
:1026C0001F910F91FF90EF90DF90CF90BF90AF9050
:1026D0009F908F900895EFEEF3E02491EBEDF3E0FF
:1026E0009491E7ECF3E0E491EE2309F43BC022235C
:1026F00039F1233091F038F42130A9F0223001F57E
:1027000024B52F7D12C0273091F02830A1F024305D
:10271000B9F4209180002F7D03C0209180002F7795
:10272000209380000DC024B52F7724BD09C02091CF
:10273000B0002F7703C02091B0002F7D2093B00010
:10274000F0E0EE0FFF1FEA54FC4FA591B4912FB7B4
:10275000F894EC91811103C090959E2301C09E2BAB
:102760009C932FBF0895AF92BF92CF92DF92EF92CA
:10277000FF920F931F93CF93DF93CDB7DEB7C05176
:10278000D1400FB6F894DEBF0FBECDBF5C01DC01B7
:1027900013960C9110E07801B6E0EB0EF11CBC0131
:1027A0006E5F7F4FFE0131966F01A701CF010E943E
:1027B000501EF601EE0DFF1DD5019C9111968C91D6
:1027C00090838183085F1F4F7601F70161917F013C
:1027D00086EF92E00E94AD02C7018C199D09801717
:1027E000910798F3C05FDE4F0FB6F894DEBF0FBEBF
:1027F000CDBFDF91CF911F910F91FF90EF90DF90B0
:10280000CF90BF90AF900895CF93DF93CDB7DEB751
:10281000C051D1400FB6F894DEBF0FBECDBF1986B0
:102820001A861B861C8682E18D871E861F86188A63
:1028300083E0898B188642E369E0CE0101960E940D
:10284000F112CE0101960E94B313C05FDE4F0FB6A6
:10285000F894DEBF0FBECDBFDF91CF910895CF9327
:10286000DF93CDB7DEB7C354D1400FB6F894DEBFC7
:102870000FBECDBFFC0186E0CF5EDE4F8883C15125
:10288000D140309759F482E3E1E1F1E0EC0FFD1F14
:102890003196DF011D928A95E9F70AC092E3A1E122
:1028A000B1E0AC0FBD1F119601900D929A95E1F722
:1028B00083E3FE01EF5EFE4FDE01199601900D925B
:1028C0008A95E1F78DEF888743E563E3CE010196B2
:1028D0000E94F112CE0101960E94B313CD5BDE4F30
:1028E0000FB6F894DEBF0FBECDBFDF91CF91089534
:1028F0008F929F92AF92BF92FF920F931F93CF93AD
:10290000DF93CDB7DEB7C952D1400FB6F894DEBF22
:102910000FBECDBFF82E082F10E0F801E451FD4F97
:10292000608170E080E090E00E94D51A4B015C016C
:102930008F2D0E943407FC01CF5EDE4F8882998282
:10294000AA82BB82C151D1408AE090E0CB5EDE4FCB
:1029500099838883C551D140C95EDE4F19830883AE
:10296000C751D14089E0C75DDE4F8883C952D1404D
:10297000309759F480E1E1E1F1E0EC0FFD1F38966A
:10298000DF011D928A95E9F70AC090E1A1E1B1E06B
:10299000AC0FBD1F189601900D929A95E1F789E151
:1029A000FE01EF5EFE4FDE01199601900D928A95B1
:1029B000E1F786E188874CED69E1CE0101960E943E
:1029C000F112CE0101960E94B313C75DDE4F0FB620
:1029D000F894DEBF0FBECDBFDF91CF911F910F9155
:1029E000FF90BF90AF909F908F900895CF93DF930B
:1029F000CDB7DEB7C051D1400FB6F894DEBF0FBEE1
:102A0000CDBF2AE030E03A8729878B871C8686E095
:102A10008D8781E08E8782E4888744E966E0CE0175
:102A200001960E94F112CE0101960E94B313C05F7D
:102A3000DE4F0FB6F894DEBF0FBECDBFDF91CF9152
:102A40000895CF93DF93CDB7DEB7C051D1400FB615
:102A5000F894DEBF0FBECDBF19861A861B861C8672
:102A60001D861E861F86188A198A1A8A1B8A1C8A46
:102A70001D8A1E8A1F8A188E198E1A8E1B8E1C8E16
:102A80001D8E1E8E1F8E18A219A21AA21BA21CA296
:102A900025E130E03EA32DA38FA318A619A68CE450
:102AA000888748E961E2CE0101960E94F112CE01C9
:102AB00001960E94B313C05FDE4F0FB6F894DEBFDD
:102AC0000FBECDBFDF91CF9108953FB7F8948091AD
:102AD000E4039091E503A091E603B091E70326B5E6
:102AE000A89B05C02F3F19F00196A11DB11D3FBF46
:102AF000BA2FA92F982F8827820F911DA11DB11DD4
:102B0000BC01CD0142E0660F771F881F991F4A95CF
:102B1000D1F708952FB7F8946091E0037091E10325
:102B20008091E2039091E3032FBF0895CF93DF9349
:102B3000CDB7DEB7C051D1400FB6F894DEBF0FBE9F
:102B4000CDBF0E948A1519861A861B861C861D8693
:102B50001E861F86188A698B7A8B8B8B9C8B82E0F2
:102B6000888749E86CE0CE0101960E94F112CE01FF
:102B700001960E94B313C05FDE4F0FB6F894DEBF1C
:102B80000FBECDBFDF91CF9108954F925F926F92AC
:102B90007F92AF92CF92DF92EF92FF920F931F93AB
:102BA000CF93DF93CDB7DEB7C851D1400FB6F894BD
:102BB000DEBF0FBECDBFCF5EDE4F688379838A83D1
:102BC0009B83C151D14027013801CB5EDE4F288362
:102BD000C551D140CA5EDE4F3883C651D140C95E6F
:102BE000DE4F4883C751D140C85EDE4F5883C8517D
:102BF000D1400E948A1569877A878B879C87CF5E30
:102C0000DE4F88819981AA81BB81C151D1408D87D6
:102C10009E87AF87B88BCB5EDE4F2881C551D140F0
:102C2000CA5EDE4F3881C651D140C95EDE4F488151
:102C3000C751D140C85EDE4F5881C851D140298B61
:102C40003A8B4B8B5C8B77FA709477F870944D8A43
:102C50005E8A6F8A788E198E1A8E1B8E1C8E1D8E40
:102C60001E8E1F8E18A219A21AA21BA21CA21DA2A0
:102C70001EA21FA218A619A61AA61BA61CA61DA650
:102C80001EA61FA618AA19AA1AAA1BAA1CAA1DAA20
:102C90001EAA1FAA18AE88EF9FE09AAF89AFABAE0D
:102CA0001CAE81E08DAF84E588874FE865E38E0137
:102CB0000F5F1F4FC8010E94F112C8010E94B31399
:102CC00080E191E0D801FC011D923197E9F780E0A5
:102CD00090E0A4E3B3E489879A87AB87BC8783E756
:102CE00090E09EA38DA3AFA2B60180E090E00E9489
:102CF000D51A20E030E048EC52E40E942D1A0E94E0
:102D0000A61A69A78CE4888748E961E2C8010E9495
:102D1000F112C8010E94B313C85EDE4F0FB6F894DB
:102D2000DEBF0FBECDBFDF91CF911F910F91FF90FE
:102D3000EF90DF90CF90AF907F906F905F904F902B
:102D400008951F920F920FB60F9211242F933F9365
:102D50008F939F93AF93BF938091E0039091E10392
:102D6000A091E203B091E3033091DF0323E0230F4E
:102D70002D3720F40196A11DB11D05C026E8230FB3
:102D80000296A11DB11D2093DF038093E003909371
:102D9000E103A093E203B093E3038091E4039091F5
:102DA000E503A091E603B091E7030196A11DB11DD3
:102DB0008093E4039093E503A093E603B093E703C5
:102DC000BF91AF919F918F913F912F910F900FBE27
:102DD0000F901F901895E6EFF2E01382128288EEB2
:102DE00093E0A0E0B0E084839583A683B78384E07A
:102DF00091E09183808385EC90E09587848784ECD3
:102E000090E09787868780EC90E0918B808B81ECB7
:102E100090E0938B828B82EC90E0958B848B86EC98
:102E200090E0978B868B118E128E138E148E0895E0
:102E3000789484B5826084BD84B5816084BD85B595
:102E4000826085BD85B5816085BD80916E008160A1
:102E500080936E0010928100809181008260809347
:102E60008100809181008160809381008091800049
:102E70008160809380008091B10084608093B10074
:102E80008091B00081608093B00080917A0084606E
:102E900080937A0080917A00826080937A0080919A
:102EA0007A00816080937A0080917A0080688093B4
:102EB0007A001092C100EBEDF3E02491E7ECF3E02F
:102EC0008491882399F090E0880F991FFC01E455C4
:102ED000FC4FA591B491FC01EA54FC4F859194916B
:102EE0008FB7F894EC91E22BEC938FBF80E00E94B7
:102EF0006B13E0910603F091070382E08083E09179
:102F00000603F09107031082E0910203F09103039E
:102F10001082E0910403F091050380E18083109218
:102F20000E03E0910A03F0910B0386E08083E091A9
:102F30000803F0910903808180618083E091080398
:102F4000F0910903808188608083E0910803F0910B
:102F50000903808180688083E0910803F091090370
:102F600080818F7D80830CEE12E0C0E0D0E0CE0146
:102F70000E94691EF80181938F012196CA30D10504
:102F8000B1F78091F3028F3118F081E08093F30262
:102F90008091F402809375028091F5028093A302E0
:102FA000C0E08C2F0E947814CF5FCA30D1F70E9406
:102FB00065154B015C0194E6C92ED12CE12CF12C56
:102FC0000E946515DC01CB0188199909AA09BB0982
:102FD000883E9340A105B10558F0F1E0CF1AD10821
:102FE000E108F10828EE820E23E0921EA11CB11C1C
:102FF000C114D104E104F10419F781E00E94F61430
:103000008091F002813021F485E291E00E942F143A
:103010000E948A156093D8027093D9028093DA02D5
:103020009093DB021092A302DEE28AE0B82E86EFD4
:1030300092E00E9476021816190614F40E9469079D
:103040000E948A150091E0021091E1022091E202B3
:103050003091E302DC01CB01801B910BA20BB30B7F
:103060004497A105B10508F452C0809158028130FF
:10307000E1F40E948A1500915402109155022091AA
:10308000560230915702AB01BC01401B510B620B41
:10309000730B8091520290915302A0E0B0E084172C
:1030A0009507A607B70708F44BC10E948A1500913F
:1030B000DC021091DD022091DE023091DF02AB01D3
:1030C000BC01401B510B620B730B80915A02909113
:1030D0005B02A0E0B0E0481759076A077B0768F079
:1030E00080915902813049F41092590280915C021A
:1030F000853009F02BC110925C020E948A15609302
:10310000E0027093E1028093E2029093E3020E9456
:103110008A150091E4021091E5022091E6023091B7
:10312000E702DC01CB01801B910BA20BB30B883CA7
:103130009105A105B10508F4A1C0C0E08091F3029A
:10314000C81708F091C08091A302813009F07EC0B9
:103150008091F202811126C0DC9FF0011124EB580E
:10316000FD4F8091690290916A02A0916B02B0912B
:103170006C02828B938BA48BB58B80916D029091A6
:103180006E02A0916F02B0917002868B978BA08F18
:10319000B18F8091710290917202A0917302B091EF
:1031A000740227C0813049F5DC9FF0011124EB58EF
:1031B000FD4F80915D0290915E02A0915F02B091FF
:1031C0006002828B938BA48BB58B8091610290916E
:1031D0006202A0916302B0916402868B978BA08FEC
:1031E000B18F8091650290916602A0916702B091C3
:1031F0006802828F938FA48FB58F8091C4029091C3
:10320000C5028F3FFFEF9F0739F0DC9FF0011124CB
:10321000EB58FD4F978F868F80915C028430B1F41C
:10322000DC9FF0011124EB58FD4FC68CD78CE28C4B
:10323000F38C048D158D26893789408D518D6289D7
:10324000738984899589A0800E94C51580915C024C
:10325000853041F4DC9FF0011124EB58FD4F808153
:103260000E942115CF5F6ACF0E948A156093E40205
:103270007093E5028093E6029093E7020E948A151C
:103280000091E8021091E9022091EA023091EB02EC
:10329000DC01CB01801B910BA20BB30B883E93404A
:1032A000A105B10508F449C00E9404140E949615B6
:1032B0000E948A150091A8021091A9022091AA02E9
:1032C0003091AB02DC01CB01801B910BA20BB30B45
:1032D00089389341A105B10530F08091A302813076
:1032E00011F41092A302C0E08091F302C817D8F441
:1032F0000E948A15DC9FF0011124EB58FD4F0281DA
:10330000138124813581DC01CB01801B910BA20B41
:10331000B30B89389341A105B10518F08181811162
:1033200019C0CF5FE1CF0E948A156093E8027093C5
:10333000E9028093EA029093EB020E94160377CE93
:1033400080E00E946B1310925802AFCE8F5F809383
:103350005C02D3CEB18288EC90E00E943203E1CFD0
:10336000EE0FFF1F0590F491E02D09945058BB27F4
:10337000AA270E94CE190C94781B0E943F1B38F09C
:103380000E94461B20F039F49F3F19F426F40C9458
:103390003C1B0EF4E095E7FB0C94361BE92F0E94D2
:1033A0009D1B58F3BA17620773078407950720F02F
:1033B00079F4A6F50C94BF1B0EF4E0950B2EBA2FF2
:1033C000A02D0B01B90190010C01CA01A00111242B
:1033D000FF27591B99F0593F50F4503E68F11A16D7
:1033E000F040A22F232F342F4427585FF3CF469568
:1033F00037952795A795F0405395C9F77EF41F168A
:10340000BA0B620B730B840BBAF09150A1F0FF0F53
:10341000BB1F661F771F881FC2F70EC0BA0F621F3F
:10342000731F841F48F4879577956795B795F7952F
:103430009E3F08F0B0CF9395880F08F09927EE0FC4
:103440009795879508950E94121B08F481E00895CE
:103450000E944F1BE3950C94891B0E94411A0C9407
:10346000781B0E94461B58F00E943F1B40F029F435
:103470005F3F29F00C94361B51110C94C01B0C9427
:103480003C1B0E949D1B68F39923B1F3552391F3D4
:10349000951B550BBB27AA2762177307840738F0C3
:1034A0009F5F5F4F220F331F441FAA1FA9F335D020
:1034B0000E2E3AF0E0E832D091505040E695001CD4
:1034C000CAF72BD0FE2F29D0660F771F881FBB1F8E
:1034D000261737074807AB07B0E809F0BB0B802D6C
:1034E000BF01FF2793585F4F3AF09E3F510578F098
:1034F0000C94361B0C94C01B5F3FE4F3983ED4F34E
:10350000869577956795B795F7959F5FC9F7880F6B
:10351000911D9695879597F90895E1E0660F771FBD
:10352000881FBB1F621773078407BA0720F0621B4E
:10353000730B840BBA0BEE1F88F7E09508950E9479
:10354000A61A6894B1110C94C01B08950E94A51B83
:1035500088F09F5798F0B92F9927B751B0F0E1F054
:10356000660F771F881F991F1AF0BA95C9F714C004
:10357000B13091F00E94BF1BB1E008950C94BF1BC5
:10358000672F782F8827B85F39F0B93FCCF386953D
:1035900077956795B395D9F73EF49095809570959A
:1035A00061957F4F8F4F9F4F0895E89409C097FB17
:1035B0003EF490958095709561957F4F8F4F9F4F0A
:1035C0009923A9F0F92F96E9BB279395F69587954E
:1035D00077956795B795F111F8CFFAF4BB0F11F411
:1035E00060FF1BC06F5F7F4F8F4F9F4F16C08823B8
:1035F00011F096E911C0772321F09EE8872F762FEE
:1036000005C0662371F096E8862F70E060E02AF02E
:103610009A95660F771F881FDAF7880F969587951A
:1036200097F90895990F0008550FAA0BE0E8FEEFEF
:1036300016161706E807F907C0F012161306E40776
:10364000F50798F0621B730B840B950B39F40A266F
:1036500061F0232B242B252B21F408950A2609F44D
:10366000A140A6958FEF811D811D089597F99F6751
:1036700080E870E060E008959FEF80EC08950024FA
:103680000A941616170618060906089500240A94C7
:10369000121613061406050608950C943C1B0E948E
:1036A000A51BD8F3E894E0E0BB279F57F0F02AED84
:1036B0003FE049EC06C0EE0FBB0F661F771F881F67
:1036C00028F0B23A62077307840728F0B25A620BF7
:1036D000730B840BE3959A9572F7803830F49A95C2
:1036E000BB0F661F771F881FD2F790480C94371DB9
:1036F000092E0394000C11F4882352F0BB0F40F400
:10370000BF2B11F460FF04C06F5F7F4F8F4F9F4F3F
:103710000895EF93E0FF07C0A2EA2AED3FE049ECED
:103720005FEB0E94CE190E94781B0F90039401FC5E
:103730009058EEE7F0E00C94711D57FD9058440F3F
:10374000551F59F05F3F71F04795880F97FB991F00
:1037500061F09F3F79F087950895121613061406BD
:10376000551FF2CF4695F1DF08C01616170618064A
:10377000991FF1CF86957105610508940895E89425
:10378000BB2766277727CB0197F908950E94121B64
:1037900008F48FEF08950E94DE1B0C94781B0E94A2
:1037A0003F1B38F00E94461B20F0952311F00C942B
:1037B000361B0C943C1B11240C94C01B0E949D1BB7
:1037C00070F3959FC1F3950F50E0551F629FF00174
:1037D000729FBB27F00DB11D639FAA27F00DB11D8D
:1037E000AA1F649F6627B00DA11D661F829F222716
:1037F000B00DA11D621F739FB00DA11D621F839F9D
:10380000A00D611D221F749F3327A00D611D231F72
:10381000849F600D211D822F762F6A2F11249F57C0
:1038200050409AF0F1F088234AF0EE0FFF1FBB1FC3
:10383000661F771F881F91505040A9F79E3F510582
:1038400080F00C94361B0C94C01B5F3FE4F3983E51
:10385000D4F3869577956795B795F795E7959F5F2C
:10386000C1F7FE2B880F911D9695879597F90895BE
:10387000FA01EE0FFF1F309621053105A1F1611508
:10388000710561F48038BFE39B0749F16894903873
:10389000810561F08038BFEF9B0741F099234AF51D
:1038A000FF3FE1053105210519F1E8940894E795FA
:1038B000D901AA2329F4AB2FBE2FF85FD0F310C093
:1038C000FF5F70F4A695E0F7F73950F019F0FF3A72
:1038D00038F49F779F930DD00F9007FC9058089570
:1038E00046F00C943C1B60E070E080E89FE3089594
:1038F0004FE79F775F934F933F932F930E94CF1D86
:103900002F913F914F915F910E94CB1B0C94031D0F
:103910009F930E944F1B0F9007FCEE5F0C94891B36
:1039200019F416F40C943C1B0C94351D0E94A51B35
:10393000B8F39923C9F3B6F39F57550B87FF0E943D
:10394000431D0024A0E640EA9001805856959795C3
:1039500028F4805C660F771F881F20F02617370732
:10396000480730F4621B730B840B202931294A2B42
:10397000A69517940794202531254A2758F7660FF6
:10398000771F881F20F026173707480730F4620B8F
:10399000730B840B200D311D411DA09581F7B901DA
:1039A000842F9158880F969587950895DF93D92F86
:1039B0000E944F1BE695D7952AED3FE049E45FE36F
:1039C000B33A6207730784079507D7953AF0A2EADE
:1039D00049EC90680E94CE190E94781BECE9F0E057
:1039E0000E94711DDD0F13F00E94851DDD0F0BF489
:1039F0009058DF91089529F416F00C94361B0C941E
:103A0000BF1B0C943C1B0E94A51BA8F39638A0F783
:103A100007F80F92E8942BE33AEA48EB5FE70E943D
:103A2000E11B0F920F920F924DB75EB70F920E945B
:103A3000171EEFEBF0E00E944A1D4F915F91EF914E
:103A4000FF91E595EE1FFF1F49F0FE57E068442700
:103A5000EE0F441FFA95E1F74195550B0E94911D19
:103A60000F9007FE0C94851D08959F3F31F09150F3
:103A700020F4879577956795B795880F911D969552
:103A8000879597F9089591505040660F771F881FCA
:103A9000D2F70895DF93CF931F930F93FF92EF9286
:103AA000DF927B018C01689406C0DA2EEF010E9440
:103AB000DE1BFE01E894A591259135914591559124
:103AC000A6F3EF010E94CE19FE019701A801DA9436
:103AD00069F7DF90EF90FF900F911F91CF91DF91E9
:103AE00008959F938F937F936F93FF93EF939B0121
:103AF000AC010E94CB1BEF91FF910E944A1D2F91B8
:103B00003F914F915F910C94CB1B9B01AC0160E006
:103B100070E080E89FE30C942D1A0C94361B0C94F3
:103B2000351D0E94A51BD8F39923C9F3940F511D8D
:103B3000A3F39150504094F059F0882332F0660F6F
:103B4000771F881F91505040C1F79E3F51052CF7B9
:103B5000880F911D9695879597F908955F3FACF072
:103B6000983E9CF0BB27869577956795B79508F4A6
:103B7000B1609395C1F7BB0F58F711F460FFE8CF20
:103B80006F5F7F4F8F4F9F4FE3CF0C94C01B16F09A
:103B90000C94351D0C943C1B68940C94361B0E94AD
:103BA000A51BA8F39923C1F3AEF3DF93CF931F9323
:103BB0000F93FF92C92FDD2788232AF02197660FE4
:103BC000771F881FDAF720E030E040E85FEB9FE3E3
:103BD000883920F0803E38F021968F770E94B719FF
:103BE000E7EEF0E004C00E94B719E4E1F1E00E94C2
:103BF0004A1D8B01BE01EC01FB2E6F5771097595B3
:103C0000771F880B990B0E94D71A28E132E741E30E
:103C10005FE30E94DE1BAF2D9801AE01FF900F9174
:103C20001F91CF91DF910E94CE190C94781BFA015D
:103C3000DC01AA0FBB1F9B01AC01BF5728F4222750
:103C400033274427507820C0B75190F4AB2F00247D
:103C5000469537952795011CA395D2F3002071F066
:103C6000220F331F441FB395DAF30ED00C94B6190C
:103C700061307105A0E88A07B94630F49B01AC01B8
:103C80006627772788279078309621F02083318324
:103C900042835383089581E090E0F8940C947F1E52
:103CA000FB01DC0102C001900D9241505040D8F759
:103CB0000895FB01DC018D91019080190110D9F369
:103CC000990B0895FB01DC0105900D920020E1F7AE
:103CD0000895F999FECF92BD81BDF89A992780B5D4
:103CE0000895262FF999FECF1FBA92BD81BD20BD40
:103CF0000FB6F894FA9AF99A0FBE01960895F894BF
:023D0000FFCFF3
:103D020000000000AD022902760254026802F402A9
:103D1200464300534700415200544B005444004C68
:103D220044005053004D435F69735F52454144590B
:023D320000008F
:00000001FF
