:1000000074C100009CC100009AC1000098C10000AA
:1000100096C1000094C1000092C1000090C1000090
:100020008EC100008CC100008AC1000088C10000A0
:1000300086C1000084C1000082C1000080C10000B0
:100040007EC100007CC100007AC1000078C10000C0
:1000500076C1000074C1000072C100000C94F81158
:100060006EC100006CC100006AC1000068C10000E0
:1000700066C1000064C1000062C1000060C10000F0
:100080005EC100005CC100005AC1000058C1000000
:1000900032C6000007C6000052C1000050C1000077
:1000A0004EC100004CC100004AC1000048C1000020
:1000B00046C1000044C1000042C1000040C1000030
:1000C0003EC100003CC100003AC1000038C1000040
:1000D00036C1000034C1000032C1000030C1000050
:1000E0002EC10000430743075807700765077B07C9
:1000F0008807A007B507DA07DA076A106D105C10E9
:1001000060106410A410711075107B107F108310A4
:1001100089108D109110A41097109B109F1005A8A6
:100120004CCDB2D44EB93836A9020C50B99186885C
:10013000083CA6AAAA2ABE000000803F0664EC1B69
:100140003C04BC163E3BE5B93CC93C37C29E5A3D17
:10015000660498083EEA69AAAA3E000000803F07AC
:10016000634236B79BD8A71A39685618AEBAAB5552
:100170008C1D3CB7CC5763BD6DEDFD753EF6177217
:1001800031BF000000803F08000000BE92244912E9
:100190003EABAAAA2ABECDCCCC4C3E00000080BE0D
:1001A000ABAAAAAA3E00000000BF000000803F00EA
:1001B00000000000084178D3BB4387D1133D190EDE
:1001C0003CC3BD4282AD2B3E68EC8276BED98FE146
:1001D000A93E4C80EFFFBE01C4FF7F3F000000003E
:1001E000000000000A0B02090C0D0E0807030401B1
:1001F00000000000000000000000000000000000FF
:1002000000000000000000000000000000001211CB
:1002100010000000000000000000000000000000CE
:10022000000000000000000000002200250028005F
:100230002B002E00310034000201000005010801EE
:100240000B0100002100240027002A002D003000AF
:10025000330001010000040107010A01050505053D
:10026000070508080808020202020A0A080804042E
:10027000040401010101010101010303030303035C
:100280000303040707070C0C0C0C0C0C0C0C0202EB
:10029000020206060606060606060B0B0B0B0B0BE8
:1002A0000B0B010210202008081020401020408075
:1002B000020102010804020101020408102040802A
:1002C00080402010080402018004020180402010B8
:1002D0000804020108040201010204081020408001
:1002E0000102040810204080421211241FBECFEFEB
:1002F000D1E2DEBFCDBF14E0A0E0B2E0EAE6F1E378
:1003000000E00BBF02C007900D92AA31B107D9F7E8
:1003100026E0AAE1B4E001C01D92AC39B207E1F7D2
:1003200011E0C5E7D1E004C02197FE010E9442140C
:10033000C437D107C9F70E946F120C94B31860CE6E
:10034000CF92DF92EF92FF920F931F93CF93DF93A1
:100350006C017A018B01C0E0D0E0CE15DF0589F099
:10036000D8016D918D01D601ED91FC910190F08144
:10037000E02DC6010995892B11F47E0102C021965A
:10038000ECCFC701DF91CF911F910F91FF90EF90BC
:10039000DF90CF900895FC01918D828D981761F0C8
:1003A000828DDF01A80FB11D5D968C91928D9F5FAC
:1003B0009F77928F90E008958FEF9FEF0895FC0153
:1003C000918D828D981731F0828DE80FF11D858D0A
:1003D00090E008958FEF9FEF0895FC01918D228D9D
:1003E000892F90E080589F4F821B91098F77992722
:1003F00008958AEA95E0F1DF21E0892B09F420E0F5
:10040000822F0895FC01848DDF01A80FB11DA35632
:10041000BF4F2C91848D90E001968F739927848F24
:10042000A689B7892C93A089B1898C9180648C931B
:10043000938D848D981306C00288F389E02D808106
:100440008F7D80830895EF92FF920F931F93CF9338
:10045000DF93EC0181E0888F9B8D8C8D981305C014
:10046000E889F989808185FD23C0F62E0B8D10E087
:100470000F5F1F4F0F731127E02E8C8DE8120BC0FA
:100480000FB607FCFACFE889F989808185FFF5CF9F
:10049000CE01B8DFF2CF8B8DFE01E80FF11DE356E0
:1004A000FF4FF0820B8FEA89FB898081806207C051
:1004B000EE89FF896083E889F9898081806480837F
:1004C00081E090E0DF91CF911F910F91FF90EF902D
:1004D0000895CF93DF93EC01888D8823C1F0EA89DA
:1004E000FB89808185FD05C0A889B9898C9186FD2D
:1004F0000EC00FB607FCF5CF808185FFF2CFA8892B
:10050000B9898C9185FFEDCFCE017CDFE8CFDF91FB
:10051000CF91089580E090E0892B41F080E090E059
:10052000892B21F00E940000811120C080E090E022
:10053000892B19F05EDF81111CC080E090E0892BCF
:1005400041F080E090E0892B21F00E9400008111B1
:1005500013C080E090E0892BA1F080E090E0892B2F
:1005600081F00E94000081110AC008950E940000DD
:10057000DDCF0E940000E1CF0E940000EACF0C9482
:10058000000008950E9487182F923F924F925F9229
:100590006F927F928F929F92AF92BF92CF92DF9293
:1005A000EF92FF920F931F93CF93DF93CDB7DEB7F8
:1005B000AC970FB6F894DEBF0FBECDBF2B013C0148
:1005C00049015A0118018701DA86C98620E030E026
:1005D00044E353E4C501B4010E944C1420E030E030
:1005E00044EB53E40E94B7140E941F1528E631E043
:1005F000269FA001279F500D369F500D1124BA0150
:10060000550F880B990B0E9452159B01AC01C50137
:10061000B4010E944B144B015C0125E33AEF4EE814
:100620005CE3C301B2010E943F166B017C0125E32C
:100630003AEF4EE85CE3C501B4010E943F166D87B6
:100640007E878F87988B20E030E04AE353E4C50132
:10065000B4010E944C1420E030E040EC50E40E94D1
:10066000B7140E941F15E985FA857183608320E025
:1006700030E040E652E4C301B2010E943B1687FD20
:1006800024C020E030E040E852E4C301B2010E94FF
:10069000B01487FF1AC020E030E040E450E4C50108
:1006A000B4010E943B1687FD10C020E030E040E41A
:1006B00051E4C501B4010E94B01487FF06C080E276
:1006C00090E0E985FA859183808320E030E040E97D
:1006D00052E4C301B2010E943B1687FD68C020E0CE
:1006E00030E048EA52E4C301B2010E94B01487FF2F
:1006F0005EC020E030E0A901C501B4010E943B16B4
:1007000087FD0DC020E030E040E151E4C501B401B7
:100710000E94B01487FF03C08FE190E044C020E046
:1007200030E040E151E4C501B4010E943B1687FD71
:100730000DC020E030E048EA51E4C501B4010E9458
:10074000B01487FF03C081E290E02DC020E030E0CC
:1007500048EA51E4C501B4010E943B1687FD0DC073
:1007600020E030E044E052E4C501B4010E94B0143E
:1007700087FF03C083E290E016C020E030E044E051
:1007800052E4C501B4010E943B1687FD10C020E071
:1007900030E048E252E4C501B4010E94B01487FF82
:1007A00006C085E290E0E985FA8591838083C701E0
:1007B000B6010E94EE169B01AC010E943F1624ED8B
:1007C0003AEB4BE55BE30E943F169B01AC0160E016
:1007D00070E080E89FE30E944B140E94F8169B0192
:1007E000AC0162E375EA82EC9AE40E94B714698F67
:1007F0007A8F8B8F9C8FC701B6010E943617698351
:100800007A838B839C839B01AC010E943F162B0152
:100810003C01C701B6010E94B4144B015C019B016D
:10082000AC010E943F1620E138E74CE55BE30E94F3
:100830003F166D837E838F839887E985FA85808153
:10084000918126E0289FB001299F700D1124675BDC
:100850007109072E000C880B990B0E94521525E395
:100860003AEF4EE85CE30E943F169B01AC016D85B8
:100870007E858F8598890E944B149B01AC01C50130
:10088000B4010E943F164B015C01A7019601C7010C
:10089000B6010E944C140E94EE16698B7A8B8B8BEA
:1008A0009C8B20E030E040E850E4C701B6010E9494
:1008B0003F160E94EE166D8F7E8F8F8F98A320E0DB
:1008C00030E040EC50E4C701B6010E943F160E94A0
:1008D000EE1669A37AA38BA39CA320E030E040E44A
:1008E00050E4C501B4010E94A21669877A878B87FC
:1008F0009C87A3019201C301B2010E943F166D873C
:100900007E878F87988B20E030E040EA50E4C50175
:10091000B4010E94A2166D8B7E8B8F8B988F29EC71
:1009200035EE4FE75FE3698D7A8D8B8D9C8D0E944C
:100930003F166DA37EA38FA398A7A301920160E049
:1009400070E080E89FE30E944B142D813E814F812F
:1009500058850E944C1429853A854B855C850E94F8
:100960003F1620E030E040EC50E40E94B7149B01B9
:10097000AC01C501B4010E944C1469877A878B874A
:100980009C8720E030E040E951E4C301B2010E94BD
:100990003F169B01AC0160E070E080EA90E40E94A9
:1009A0004B142D853E854F8558890E944C1469A7AC
:1009B0007AA78BA79CA720E030E040E952E46D8144
:1009C0007E818F8198850E943F169B01AC0169A5AD
:1009D0007AA58BA59CA50E944C142EEC3CEC47E418
:1009E0005EE30E944B142D893E894F89588D0E94E9
:1009F0003F1620E030E040EF52E40E94B7149B0124
:100A0000AC0169857A858B859C850E944C149B017D
:100A1000AC016DA17EA18FA198A50E943F1620E098
:100A200034E244EF58E40E944C14F801608371836F
:100A30008283938320E030E040E850E4C501B401B4
:100A40000E94A21669877A878B879C8720E030E016
:100A500040EC50E4C501B4010E94A2166D8B7E8B60
:100A60008F8B988F28E039EC4FE75FE3C701B60121
:100A70000E943F166B017C012AE83FEE44EA5AE3EC
:100A800069897A898B899C890E943F169B01AC01F8
:100A9000C701B6010E944B146B017C012EE631E4C4
:100AA00041E355E36D8D7E8D8F8D98A10E943F1699
:100AB0009B01AC01C701B6010E944C146B017C0183
:100AC00024E532E14CEE5FE269A17AA18BA19CA101
:100AD0000E943F169B01AC01C701B6010E944B1456
:100AE00022E335EA42EC5AE40E943F16698B7A8B86
:100AF0008B8B9C8B29813A814B815C81698D7A8DAE
:100B00008B8D9C8D0E943F166B017C01A501940189
:100B1000C501B4010E943F1620E030E040E05FE3F1
:100B20000E943F164B015C01A301920160E070E05E
:100B300080EA90E40E944B1469837A838B839C83C0
:100B400020E030E040E151E46D817E818F81988525
:100B50000E943F169B01AC0169817A818B819C8147
:100B60000E944C1469837A838B839C832D813E8100
:100B70004F815885CA01B9010E943F1620E030E03C
:100B800040E850E40E943F169B01AC0169817A81E4
:100B90008B819C810E944C1429853A854B855C850C
:100BA0000E943F1620E030E040EC51E40E94B71470
:100BB0009B01AC01C501B4010E944C144B015C01C6
:100BC00020E030E048E652E4C301B2010E943F1643
:100BD0009B01AC0160E070E084E792E40E944B145A
:100BE0002D853E854F8558890E944C142B013C0170
:100BF00020E030E046E154E46D817E818F8198856C
:100C00000E943F169B01AC01C301B2010E944C142B
:100C100022E639E14EE85FE30E944B142D893E89BC
:100C20004F89588D0E943F1620E030E044E354E4A1
:100C30000E94B7149B01AC01C501B4010E944C1481
:100C40009B01AC01C701B6010E943F169B01AC019C
:100C500069897A898B899C890E944C1429EC35EE2C
:100C60004FE75FE30E943F16F10160837183828347
:100C70009383AC960FB6F894DEBF0FBECDBFDF9165
:100C8000CF911F910F91FF90EF90DF90CF90BF9089
:100C9000AF909F908F907F906F905F904F903F901C
:100CA0002F9008951F920F920FB60F9211240BB63A
:100CB0000F922F933F934F935F936F937F938F93F5
:100CC0009F93AF93BF93EF93FF938AEA95E09ADBEC
:100CD000FF91EF91BF91AF919F918F917F916F9114
:100CE0005F914F913F912F910F900BBE0F900FBED0
:100CF0000F901F9018951F920F920FB60F9211240C
:100D00000BB60F922F938F939F93EF93FF93E091E6
:100D1000BA05F091BB058081E091C005F091C10555
:100D200082FD12C090818091C3058F5F8F772091E3
:100D3000C405821751F0E091C305F0E0E655FA4F83
:100D4000958F8093C30501C08081FF91EF919F91A2
:100D50008F912F910F900BBE0F900FBE0F901F9091
:100D60001895FB012081822790E1899F9001112431
:100D70002827822F90E0582F44279C0163E0220F00
:100D8000331F6A95E1F742275327218130E024275A
:100D9000352774E0959587957A95E1F78227932713
:100DA0009183808308952F923F924F925F926F922A
:100DB0007F928F929F92AF92BF92CF92DF92EF92EB
:100DC000FF920F931F93CF93DF93CDB7DEB7C45538
:100DD000D2400FB6F894DEBF0FBECDBF21E131E0A7
:100DE0002C0F3D1F285F3F4FC15BDD4F39832883A8
:100DF000CF54D24081E292E08C0F9D1F0696CF5ACD
:100E0000DD4F99838883C155D240A8E3B2E0AC0F8F
:100E1000BD1F1496CD5ADD4FB983A883C355D24068
:100E200001E010E089E0882E912C95E0292E312CEC
:100E300023E0422E512C34E0632E712C42E0E42E4C
:100E4000F12CCC24CA94DC2C8AEA95E0C6DA181678
:100E500019060CF0C8C68AEA95E09DDA5C01C45B0D
:100E6000DD4F8883CC54D2401092870680918A0649
:100E700090918B068B30910508F0CFC0FC01EE58A5
:100E8000FF4F0C944214C45BDD4F2881CC54D240F8
:100E90002E3F09F0C2C0F0928B06E0928A061092B3
:100EA0001D04A0921C04D0921B04C0921A04B5C069
:100EB000A0921D0410928C066AE174E08A2D51DF25
:100EC00070928B0660928A06A8C0A0921E046AE106
:100ED00074E08A2D46DF50928B0640928A069DC0B0
:100EE000A0921F046AE174E08A2D3BDF30928B06EA
:100EF00020928A0692C0A09220046AE174E08A2DB2
:100F000030DF86E090E090938B0680938A0685C060
:100F1000A09221046AE174E08A2D23DF80911D04F0
:100F2000811107C0A8E0B0E0B0938B06A0938A06B9
:100F300074C0E7E0F0E0F0938B06E0938A066DC0A2
:100F4000E0918C0681E08E0F80938C06F0E0EE5DE0
:100F5000FB4FA0826AE174E08A2D03DF90918C063A
:100F600080911D04981359C0DDCFE0912104F0E079
:100F7000E75FFD4F6AE174E08081F3DE80911A043F
:100F800090911B049927950133272817390739F0C9
:100F90002AE030E030938B0620938A0604C09092BA
:100FA0008B0680928A06E0918C06F0E0EE5DFB4FA6
:100FB000A08233C00A97B9F030911B04C35BDD4FA8
:100FC0003883CD54D240C25BDD4F1882CE54D2401C
:100FD000C5019927C35BDD4FA881B981CD54D240AB
:100FE0008A179B0711F082E001C081E08093870699
:100FF00010938B0600938A06E0918C06F0E0ED5D7D
:10100000FB4FA082EAE1F4E0DE01AF5EBE4F80E17B
:1010100091E001900D920197E1F720918706213030
:1010200099F480911E0480938D0680918F06909193
:101030009006009721F41092920610929106019664
:101040009093900680938F0680911D04CC5EDE4FB6
:101050008883C451D14080918C0610928906223039
:10106000A9F590E0FC01ED5DFB4F2081022E000C04
:10107000330B322F2227FC01EE5DFB4F8081082EBF
:10108000000C990B282B392BCF5EDE4F3983288338
:10109000C151D14081E08093890610928706C45BDC
:1010A000DD4F2881CC54D2402E3F59F4F0928B066C
:1010B000E0928A0610921D04D0921B04C0921A047A
:1010C000C3CE10938B0600938A06BECE222309F46A
:1010D000BBCE912CF2E28F2E332433948091060202
:1010E000981608F0A4C0CA5EDE4F8881C651D14070
:1010F000E92CF12C8E9C80018F9C100D1124D801BD
:10110000A65ABA4F5D019C9189138FC0C85EDE4F0D
:101110009881C851D140992309F46DC0913209F0EA
:1011200084C0C75DDE4F688179818A819B81C95205
:10113000D1400E94521520E030E04AE754E40E947A
:10114000B714D5015A966D937D938D939C935D97BB
:10115000F801E658FA4F6F01980120593A4F79018A
:1011600004591A4FCF5DDE4F688179818A819B8156
:10117000C152D1400E94521520E836E948E15BE4B3
:101180000E94B7142B013C01C35EDE4F6881798158
:101190008A819B81CD51D1400E94521520E836E9C9
:1011A00048E15BE40E94B714A3019201EDD92EEF50
:1011B0003CE64FE75FE3D50152966D917D918D91AD
:1011C0009C9155970E943F16F501628B738B848B1F
:1011D000958B2DE03AED4FE75FE366897789808D47
:1011E000918D0E943F16D50156966D937D938D93F8
:1011F0009C9359971AC0FD019181911109C03182C8
:10120000EFD780910402813019F48BE293E019D674
:101210000E941E118E9CF0018F9CF00D1124E65A45
:10122000FA4F6283738384839583939457CFCA5E06
:10123000DE4F9881C651D140913009F000C4C85E9C
:10124000DE4F8881C851D140813209F421C38332F5
:10125000C1F08111F4C380912A05811108C09093D7
:101260002A0561E083E30AD760E085E307D7E6D784
:1012700060939E0570939F058093A0059093A105B0
:10128000DEC3C95DDE4F88819981C752D1408D3D53
:10129000B5E09B0708F4C9C280912B05813009F4A1
:1012A000CEC361E084E3EAD6312C32E2B32E44E0CF
:1012B000442E512C612C712C59E5A52E6BE0962EF5
:1012C0007CE5E72EF12C882483940CE4EEEDCE2E01
:1012D000D12C80910602381608F072C0B39CF00140
:1012E0001124E65AFA4F108180910402813019F4DA
:1012F0008AE393E0A6D549865A866B867C861D874D
:10130000AE86988649E566E0CE010196ABD4CE0163
:1013100001961FD519861A861B861C861D861E8679
:101320001F86188A198A1A8A1B8A1C8A1D8A1E8A95
:101330001F8A188E198E1A8E1B8E1C8E1D8E1E8E65
:101340001F8E18A219A21AA21BA21CA2FEA2EDA215
:101350001FA318A689A6088748E961E2CE01019675
:1013600081D4CE010196F5D419861A861B861C8677
:101370001D861E861F86188A198A1A8A1B8A1C8A4D
:101380001D8A1E8A1F8A188E198E1A8E1B8E1C8E1D
:101390001D8E1E8E1F8E18A219A21AA21BA21CA29D
:1013A000DEA2CDA21FA318A619A6088748E961E20C
:1013B000CE01019657D4CE010196CBD4339489CF78
:1013C00064EF71E080E090E0D3D610E002E290E9B3
:1013D000E92EFF24F3942CE4D22E809106021817F4
:1013E00008F03DC0019FF0011124E65AFA4FC08079
:1013F00080910402813019F488E493E022D580E0E2
:1014000090E0A0E8BFE389879A87AB87BC871D86F9
:101410001E861F86188A198A1A8A1B8A1C8A1D8AA8
:101420001E8A1F8A188E198E1A8E1B8E1C8E1D8E78
:101430001E8E1F8E18A219A21AA21BA21CA2FEA207
:10144000EDA2CFA218A619A6D88648E961E2CE017E
:10145000019608D4CE0101967CD41F5FBECF6CEDFF
:1014600075E080E090E084D610E002E2C02E86E1D4
:10147000E82EF12C0CE490910602809105021917D8
:1014800008F077C0C19EF0011124E65AFA4FD080CF
:10149000682F70E080E090E00E9450154B015C01E5
:1014A00080910402813019F48FE493E0CAD4198644
:1014B0001A861B861C861D861E861F86188A198A18
:1014C0001A8A1B8A1C8A1D8A1E8A1F8A188E198EE8
:1014D0001A8E1B8E1C8E1D8E1E8E1F8E18A289A228
:1014E0009AA2ABA2BCA2FEA2EDA2DFA218A619A6E8
:1014F000088748E961E2CE010196B4D3CE01019696
:1015000028D464EF71E080E090E032D619861A8624
:101510001B861C861D861E861F86188A198A1A8AB3
:101520001B8A1C8A1D8A1E8A1F8A188E198E1A8E83
:101530001B8E1C8E1D8E1E8E1F8E18A289A29AA233
:10154000ABA2BCA2FEA2EDA2DFA218A619A6088734
:1015500048E961E2CE01019685D3CE010196F9D327
:1015600080910402813019F487E593E06AD41F5F0B
:1015700082CF28EE33E0829FB001839F700D11244B
:10158000072E000C880B990BF3D580913E059091A6
:101590003F05A0914005B09141058093320590939D
:1015A0003305A0933405B0933505809142059091A1
:1015B0004305A0914405B09145058093360590936D
:1015C0003705A0933805B093390580914605909171
:1015D0004705A0914805B091490580933A0590933D
:1015E0003B05A0933C05B0933D0580910302882301
:1015F00069F0813009F012C1C45BDD4F1882CC5410
:10160000D24018EF212E1FE0312E1FC0909106020C
:10161000EAE5F5E080E0891709F400C142895389C1
:10162000648975894683578360877187468957899E
:10163000608D718D428753876487758716861786FC
:10164000108A118A8F5FB296E6CF80910602C45B42
:10165000DD4F9881CC54D240981708F0DFC0C45BAE
:10166000DD4F9881CC54D240A92EB12C609100025C
:1016700070E080E090E00E94521520913205309198
:10168000330540913405509135050E944C146B018F
:101690007C01A2E2AA9D8001AB9D100D1124065A87
:1016A0001A4FF801668377838087918760910102E2
:1016B00070E080E090E00E94521520913605309154
:1016C000370540913805509139050E944C142B0183
:1016D0003C01D8011A966D937D938D939C931D9731
:1016E0006091020270E080E090E00E9450154B0192
:1016F0005C01F80166877787808B918B10819ED57E
:1017000069877A878B879C8720E836E948E15BE424
:10171000C701B6010E943F160E941F156D877E8784
:101720008F87988B20E836E948E15BE4C301B2017A
:101730000E943F160E941F15698B7A8B8B8B9C8BA6
:101740008D8A9E8AAF8AB88E198E1A8E1B8E1C8E39
:101750001D8E1E8E1F8E18A219A21AA21BA21CA2D9
:101760001DA21EA21FA218A619A61AA61BA61CA679
:101770001DA61EA61FA618AA19AA1AAA1BAA1CAA49
:101780001DAA1EAA1FAA18AE3AAE29AE1BAF1CAEE8
:10179000F6E0FDAF26E5288745E065E3CE0101963A
:1017A00061D26091000270E080E090E00E945015EC
:1017B0002B013C016091010270E080E090E00E940A
:1017C00050154B015C01A3019201C301B2010E94BB
:1017D0003F162B013C01A5019401C501B4010E94F3
:1017E0003F169B01AC01C301B2010E944C140E9440
:1017F000F81620E030E04AE754E40E943F160E94C9
:101800002415B6D4C45BDD4F3881CC54D2403F5F41
:10181000C45BDD4F3883CC54D24017CF81E0809336
:101820002B0560E084E32AD40AC18C3D954009F47D
:1018300006C180912B05813009F001C1109232055B
:10184000109233051092340510923505109236052A
:1018500010923705109238051092390580910402D4
:10186000813019F487E693E0ECD210E002E2809137
:101870000602181748F4019FF0011124E65AFA4FA6
:1018800080819BD31F5FF3CF82E080932B05D7C06D
:10189000C75DDE4F688179818A819B81C952D140C1
:1018A0000E94521520E030E04AE754E40E94B71449
:1018B00060934605709347058093480590934905CA
:1018C000CF5DDE4F688179818A819B81C152D14091
:1018D0000E94521520E836E948E15BE40E94B71403
:1018E0004B015C01C35EDE4F688179818A819B81F7
:1018F000CD51D1400E94521520E836E948E15BE421
:101900000E94B714ACE4CA2EA5E0DA2EB2E4EB2EA6
:10191000B5E0FB2E0EE315E0A50194010E94C40280
:101920002EEF3CE64FE75FE360913E0570913F0587
:1019300080914005909141050E943F164B015C014A
:1019400060933E0570933F05809340059093410559
:101950002DE03AED4FE75FE360914205709143055A
:1019600080914405909145050E943F166B017C01D2
:101970006093420570934305809344059093450519
:10198000CD5CDE4F88819981C353D14090934B0544
:1019900080934A05209132053091330540913405FA
:1019A00050913505C501B40176D760935605709303
:1019B000570580935805909359052091360530912D
:1019C00037054091380550913905C701B60163D7F5
:1019D0006093520570935305809354059093550579
:1019E000809103028130D9F46091020270E080E0BE
:1019F00090E00E9452159B01AC01609146057091E8
:101A00004705809148059091490546D760934E055A
:101A100070934F05809350059093510510C08091AD
:101A2000460590914705A0914805B09149058093DE
:101A30004E0590934F05A0935005B0935105CA5E93
:101A4000DE4F8881C651D1408F3F09F0E9C9C85E99
:101A5000DE4F8881C851D140853109F465C0873196
:101A600021F0843109F0DCC96DC08091040281301D
:101A700019F48FE693E0E5D1CC5EDE4F4881C45186
:101A8000D140483108F047E1E7E1FE2E8E010F5FBB
:101A90001F4FF8012F2D11922A95E9F750E0C15BF5
:101AA000DD4F68817981CF54D240C8010E948B18E4
:101AB000F801DE01AF5DBD4F01900D92FA94E1F7A0
:101AC000F9E1EF2EF3E0FF2E00E010E0CF5ADD4FFA
:101AD00068817981C155D240D7018D919D917D0159
:101AE0000E949418892BD1F4CF5DDD4F68817981F4
:101AF0008A819B81C152D240A7D7F801E050FE4FA6
:101B00006083C8010E94A518802FE2D18091040251
:101B1000813009F085C98EE793E063C00F5F1F4FE6
:101B20000930110599F67CC910E0812FD1D11F5FD2
:101B30001930D9F780910402813009F071C98AE81F
:101B400093E04FC0CC5EDE4F4881C451D140453157
:101B500008F044E174E1F72E8E010F5F1F4FF8018A
:101B60002F2D11922A95E9F750E0C15BDD4F688176
:101B70007981CF54D240C8010E948B18F801DE0150
:101B8000A85CBD4F01900D92FA94E1F7C85CDD4F5F
:101B900088819981C853D2408F3F3FEF9307C9F4A2
:101BA00069E1E62E63E0F62E10E0CD5ADD4F688144
:101BB0007981C355D240D7018D919D917D010E94BD
:101BC0009418892B11F4812F04C01F5F193069F715
:101BD00001C07ED180910402813009F021C98DE9D4
:101BE00093E02FD11DC9CC5ADD4F0FB6F894DEBF5C
:101BF0000FBECDBFDF91CF911F910F91FF90EF905E
:101C0000DF90CF90BF90AF909F908F907F906F901C
:101C10005F904F903F902F9008953FB7F894809138
:101C2000980690919906A0919A06B0919B0626B5C8
:101C3000A89B05C02F3F19F00196A11DB11D3FBF04
:101C4000BA2FA92F982F8827820F911DA11DB11D92
:101C5000BC01CD0142E0660F771F881F991F4A958E
:101C6000D1F708958F929F92AF92BF92CF92DF9259
:101C7000EF92FF920F931F93CF93DF9300D0CDB7D6
:101C8000DEB78C01D62EC42E8EEFD80112968C931F
:101C9000129713966C93139783E615968C9315976A
:101CA00016961C92169790918E0614969C939F5FA1
:101CB00090938E068FEF9FEF9A8389835801B3E04C
:101CC000AB0EB11C7801E8E0EE0EF11CAE14BF04BF
:101CD00041F0BE016F5F7F4FD5018D915D0141D80D
:101CE000F5CF89819A81F80191838083570183819F
:101CF0004701880E911CB801A814B90429F0D50138
:101D00008D915D012ED8F7CF8C2D2BD8F8018381D2
:101D1000F701E80FF11DD8018C91808313968C9107
:101D20001397F701E80FF11D11968C9181838D2D8A
:101D300090E008960F900F90DF91CF911F910F9137
:101D4000FF90EF90DF90CF90BF90AF909F908F90DB
:101D50000895AF92BF92CF92DF92EF92FF920F93CE
:101D60001F93CF93DF93CDB7DEB7DA950FB6F89414
:101D7000DEBF0FBECDBF5C01DC0113960C9110E0FD
:101D80007801B6E0EB0EF11CBC016E5F7F4FFE01E7
:101D900031966F01A701CF010E948B18F601EE0D5D
:101DA000FF1DD5019C9111968C9190838183085FD2
:101DB0001F4F7601F70161917F018AEA95E00E9449
:101DC0002302C7018C199D098017910798F3D395B9
:101DD0000FB6F894DEBF0FBECDBFDF91CF911F913C
:101DE0000F91FF90EF90DF90CF90BF90AF9008954C
:101DF000CF93DF93CDB7DEB7C051D1400FB6F89483
:101E0000DEBF0FBECDBF19861A861B861C8682E1F7
:101E10008D871E861F86188A83E0898B188642E389
:101E200069E0CE0101961EDFCE01019692DFC05F10
:101E3000DE4F0FB6F894DEBF0FBECDBFDF91CF915E
:101E40000895CF93DF93CDB7DEB7C354D1400FB61B
:101E5000F894DEBF0FBECDBFFC0186E0CF5EDE4F43
:101E60008883C151D140309759F482E3E1E1F1E038
:101E7000EC0FFD1F3196DF011D928A95E9F70AC02C
:101E800092E3A1E1B1E0AC0FBD1F119601900D925C
:101E90009A95E1F783E3FE01EF5EFE4FDE011996AE
:101EA00001900D928A95E1F78DEF888743E563E312
:101EB000CE010196D7DECE0101964BDFCD5BDE4F22
:101EC0000FB6F894DEBF0FBECDBFDF91CF9108955E
:101ED000EF92FF920F931F93CF93DF93CDB7DEB7AF
:101EE000C952D1400FB6F894DEBF0FBECDBF082F48
:101EF00010E0F801EE0FFF1FE75EFC4FE080F1807D
:101F0000F801E050FE4F608170E080E090E0C8D5BD
:101F1000CF5EDE4F688379838A839B83C151D14032
:101F200089E090E0CB5EDE4F99838883C551D14034
:101F3000C95EDE4F19830883C751D140C75DDE4FAC
:101F40008883C952D14080E1E114F10451F4E1E108
:101F5000F1E0EC0FFD1F3896DF011D928A95E9F73D
:101F60000AC0F701A1E1B1E0AC0FBD1F18960190C6
:101F70000D928A95E1F789E1FE01EF5EFE4FDE01E9
:101F8000199601900D928A95E1F786E188874CEDCC
:101F900069E1CE01019666DECE010196DADEC75D0B
:101FA000DE4F0FB6F894DEBF0FBECDBFDF91CF91ED
:101FB0001F910F91FF90EF900895CF93DF93CDB7CE
:101FC000DEB7C051D1400FB6F894DEBF0FBECDBF13
:101FD00019861A861B861C861D861E861F86188AF1
:101FE000198A1A8A1B8A1C8A1D8A1E8A1F8A188EC1
:101FF000198E1A8E1B8E1C8E1D8E1E8E1F8E18A281
:1020000019A21AA21BA21CA225E130E03EA32DA317
:102010008FA318A619A68CE4888748E961E2CE014F
:10202000019620DECE01019694DEC05FDE4F0FB632
:10203000F894DEBF0FBECDBFDF91CF91089590E041
:10204000FC01EE55FD4F2491FC01E45AFD4F8491B3
:10205000882399F090E0880F991FFC01EE5BFD4FFB
:10206000A591B491FC01E85DFD4F859194918FB7E6
:10207000F894EC91E22BEC938FBF0895362F90E00B
:10208000FC01EE51FE4F4491FC01EE55FD4F2491B1
:10209000FC01E45AFD4F8491882309F468C044236D
:1020A00009F452C050E0FA013197E231F10508F02D
:1020B0004BC0E358FF4FE6C3909180009F7707C065
:1020C000909180009F7D03C090918000977F9093B6
:1020D00080003AC094B59F7702C094B59F7D94BDAF
:1020E00033C09091B0009F7703C09091B0009F7D66
:1020F0009093B00029C0909190009F7707C0909175
:1021000090009F7D03C090919000977F90939000E6
:102110001BC09091A0009F7707C09091A0009F7D69
:1021200003C09091A000977F9093A0000DC0909164
:1021300020019F7707C0909120019F7D03C090915F
:102140002001977F90932001E82FF0E0EE0FFF1F12
:10215000E85DFD4FA591B4918FB7F894EC913111E2
:1021600003C020952E2301C02E2B2C938FBF0895E2
:102170008F929F92AF92BF92CF92DF92EF92FF9297
:102180006B017C014ADD4B015C01C114D104E10407
:10219000F104E9F042DDDC01CB0188199909AA09B3
:1021A000BB09883E9340A105B10578F321E0C21A2E
:1021B000D108E108F10888EE880E83E0981EA11C82
:1021C000B11CC114D104E104F10421F7DECFFF906A
:1021D000EF90DF90CF90BF90AF909F908F90089539
:1021E000CF93DF93CDB7DEB7C051D1400FB6F8948F
:1021F000DEBF0FBECDBF2AE030E03A8729878B874C
:102200001C8686E08D8781E08E8782E4888744E99A
:1022100066E0CE01019626DDCE0101969ADD64EFDF
:1022200071E080E090E0A4DFC05FDE4F0FB6F8946D
:10223000DEBF0FBECDBFDF91CF9108952FB7F894C9
:1022400060919406709195068091960690919706FC
:102250002FBF0895CF93DF93CDB7DEB7C051D140E4
:102260000FB6F894DEBF0FBECDBFE8DF19861A8621
:102270001B861C861D861E861F86188A698B7A8B94
:102280008B8B9C8B82E0888749E86CE0CE010196BD
:10229000E9DCCE0101965DDDC05FDE4F0FB6F8943C
:1022A000DEBF0FBECDBFDF91CF9108954F925F92F9
:1022B0006F927F928F929F92AF92BF92CF92EF9246
:1022C000FF920F931F93CF93DF93CDB7DEB7C45127
:1022D000D1400FB6F894DEBF0FBECDBF2B013C013D
:1022E00047015801CF5EDE4F2883C151D140CE5EF9
:1022F000DE4F3883C251D140CD5EDE4F4883C3519B
:10230000D140CC5EDE4F5883C451D14097DF6987FE
:102310007A878B879C874D865E866F86788ACF5EAC
:10232000DE4F2881C151D140CE5EDE4F3881C2518F
:10233000D140CD5EDE4F4881C351D140CC5EDE4FEF
:102340005881C451D140298B3A8B4B8B5C8BB7FAA7
:10235000B094B7F8B0948D8A9E8AAF8AB88E198EE1
:102360001A8E1B8E1C8E1D8E1E8E1F8E18A219A2F9
:102370001AA21BA21CA21DA21EA21FA218A619A669
:102380001AA61BA61CA61DA61EA61FA618AA19AA39
:102390001AAA1BAA1CAA1DAA1EAA1FAA18AE88EF59
:1023A0009FE09AAF89AFCBAE1CAE81E08DAF84E5E4
:1023B00088874FE865E3CE01019654DCCE01019693
:1023C000C8DCCC5EDE4F0FB6F894DEBF0FBECDBFCB
:1023D000DF91CF911F910F91FF90EF90CF90BF9021
:1023E000AF909F908F907F906F905F904F900895E7
:1023F0001F920F920FB60F9211242F933F938F933A
:102400009F93AF93BF938091940690919506A0916E
:102410009606B09197063091930623E0230F2D374F
:1024200020F40196A11DB11D05C026E8230F0296D8
:10243000A11DB11D20939306809394069093950659
:10244000A0939606B093970680919806909199066E
:10245000A0919A06B0919B060196A11DB11D809393
:10246000980690939906A0939A06B0939B06BF9105
:10247000AF919F918F913F912F910F900FBE0F9031
:102480001F901895EAEAF5E01382128288EE93E035
:10249000A0E0B0E084839583A683B7838DE093E0CA
:1024A000918380838DEC90E0958784878CEC90E01D
:1024B0009787868788EC90E0918B808B89EC90E001
:1024C000938B828B8AEC90E0958B848B8EEC90E0E2
:1024D000978B868B118E128E138E148E089578949E
:1024E00084B5826084BD84B5816084BD85B5826019
:1024F00085BD85B5816085BD80916E0081608093CA
:102500006E00109281008091810082608093810032
:102510008091810081608093810080918000816042
:10252000809380008091B10084608093B10080919D
:10253000B00081608093B0008091910082608093B0
:102540009100809191008160809391008091900032
:102550008160809390008091A10082608093A100AF
:102560008091A10081608093A1008091A000816092
:102570008093A0008091210182608093210180914D
:1025800021018160809321018091200181608093ED
:10259000200180917A00846080937A0080917A0093
:1025A000826080937A0080917A00816080937A00C3
:1025B00080917A00806880937A001092C10083E352
:1025C0003EDD61E083E35ADD84E339DD61E084E3ED
:1025D00055DD85E334DD61E085E350DDE091BA054A
:1025E000F091BB0582E08083E091BA05F091BB05D4
:1025F0001082E091B605F091B7051082E091B80520
:10260000F091B90580E180831092C205E091BE058A
:10261000F091BF0586E08083E091BC05F091BD0597
:10262000808180618083E091BC05F091BD0580814F
:1026300088608083E091BC05F091BD058081806851
:102640008083E091BC05F091BD0580818F7D808302
:1026500068E873E180E090E08BDD00E012E0C0E02C
:10266000D0E0CE016AD5F80181938F012196C9305F
:10267000D105B9F7809106028F3118F081E080937F
:1026800006028091070280935A0580910802809388
:102690007C05C0E08C2F1CDCCF5FC930D9F764E625
:1026A00070E080E090E064DD81E09ADD80910402DA
:1026B000813019F48FEA93E0C4DB60E083E3DEDC71
:1026C00060E084E3DBDCD2E28AE0D82E0E94D3060D
:1026D000B5DD0091A2051091A3052091A4053091CC
:1026E000A505DC01CB01801B910BA20BB30B883C31
:1026F0009105A105B10508F461C0912C80910602F5
:10270000981608F052C0A92CB12C60915605709112
:1027100057058091580590915905DA9DF001DB9D90
:10272000F00D1124E65AFA4F628B738B848B958BD4
:102730002091520530915305409154055091550513
:10274000268B378B408F518FE0904E05F0904F05D0
:102750000091500510915105E28EF38E048F158F74
:10276000A0914A05B0914B05AF3FCFEFBC0711F0E8
:10277000B78FA68FE0912B05E13051F4DA9DF0017F
:10278000DB9DF00D1124E65AFA4FC0808FDD0BC09F
:10279000E23049F4DA9DF001DB9DF00D1124E65A98
:1027A000FA4F80810ADC9394A9CF48DD6093A2059B
:1027B0007093A3058093A4059093A5053FDD009138
:1027C000A6051091A7052091A8053091A905DC0167
:1027D000CB01801B910BA20BB30B883E9340A1054C
:1027E000B10508F44CC004DB35DD28DD00919E0501
:1027F00010919F052091A0053091A105DC01CB012E
:10280000801B910BA20BB30B89389341A105B10535
:1028100030F060E083E332DC61E085E32FDCC0E090
:1028200080910602C81710F509DDDC9FF001112424
:10283000E65AFA4F0281138124813581DC01CB01F4
:10284000801B910BA20BB30B89389341A105B105F5
:1028500058F08181882341F0D18280910402813037
:1028600019F48BEB93E0EDDACF5FDACFE7DC60931E
:10287000A6057093A7058093A8059093A9050E94CB
:102880008A0224CFEE0FFF1F0024001C0BBE07900E
:10289000F691E02D09945058BB27AA270ED0A0C16D
:1028A00069D130F06ED120F031F49F3F11F41EF465
:1028B0005EC10EF4E095E7FB54C1E92FB3D180F37C
:1028C000BA17620773078407950718F071F49EF52D
:1028D000CBC10EF4E0950B2EBA2FA02D0B01B90140
:1028E00090010C01CA01A0011124FF27591B99F086
:1028F000593F50F4503E68F11A16F040A22F232F92
:10290000342F4427585FF3CF469537952795A795E1
:10291000F0405395C9F77EF41F16BA0B620B730B88
:10292000840BBAF09150A1F0FF0FBB1F661F771FF9
:10293000881FC2F70EC0BA0F621F731F841F48F4AE
:10294000879577956795B795F7959E3F08F0B3CF34
:102950009395880F08F09927EE0F9795879508951E
:10296000DCD008F481E0089514D1E3954AC10CD07D
:1029700037C107D140F0FED030F021F45F3F19F0AD
:10298000F0C0511172C1F3C04DD198F39923C9F32E
:102990005523B1F3951B550BBB27AA276217730765
:1029A000840738F09F5F5F4F220F331F441FAA1F19
:1029B000A9F333D00E2E3AF0E0E830D091505040D9
:1029C000E695001CCAF729D0FE2F27D0660F771F87
:1029D000881FBB1F261737074807AB07B0E809F069
:1029E000BB0B802DBF01FF2793585F4F2AF09E3FFE
:1029F000510568F0B6C039C15F3FECF3983EDCF397
:102A0000869577956795B795F7959F5FC9F7880F76
:102A1000911D9695879597F90895E1E0660F771FC8
:102A2000881FBB1F621773078407BA0720F0621B59
:102A3000730B840BBA0BEE1F88F7E095089504D052
:102A40006894B11112C10895F5D088F09F5790F0A5
:102A5000B92F9927B751A0F0D1F0660F771F881FC3
:102A6000991F1AF0BA95C9F712C0B13081F0FCD0A5
:102A7000B1E00895F9C0672F782F8827B85F39F043
:102A8000B93FCCF3869577956795B395D9F73EF422
:102A900090958095709561957F4F8F4F9F4F0895CA
:102AA000E89409C097FB3EF49095809570956195E8
:102AB0007F4F8F4F9F4F9923A9F0F92F96E9BB279E
:102AC0009395F695879577956795B795F111F8CF1A
:102AD000FAF4BB0F11F460FF1BC06F5F7F4F8F4F85
:102AE0009F4F16C0882311F096E911C0772321F07B
:102AF0009EE8872F762F05C0662371F096E8862F13
:102B000070E060E02AF09A95660F771F881FDAF769
:102B1000880F9695879597F90895990F0008550F96
:102B2000AA0BE0E8FEEF16161706E807F907C0F053
:102B300012161306E407F50798F0621B730B840B5B
:102B4000950B39F40A2661F0232B242B252B21F435
:102B500008950A2609F4A140A6958FEF811D811DD5
:102B6000089597F99F6780E870E060E008959FEF0F
:102B700080EC089500240A94161617061806090614
:102B8000089500240A9412161306140605060895E3
:102B9000EECF50D0E8F3E894E0E0BB279F57F0F089
:102BA0002AED3FE049EC06C0EE0FBB0F661F771F12
:102BB000881F28F0B23A62077307840728F0B25AD8
:102BC000620B730B840BE3959A9572F7803830F49F
:102BD0009A95BB0F661F771F881FD2F7904899C13F
:102BE000092E0394000C11F4882352F0BB0F40F41B
:102BF000BF2B11F460FF04C06F5F7F4F8F4F9F4F5B
:102C00000895EF93E0FF06C0A2EA2AED3FE049EC09
:102C10005FEB53DEE5DF0F90039401FC9058EEE18B
:102C2000F1E0AFC157FD9058440F551F59F05F3F79
:102C300071F04795880F97FB991F61F09F3F79F0DE
:102C400087950895121613061406551FF2CF469560
:102C5000F1DF08C0161617061806991FF1CF8695E2
:102C60007105610508940895E894BB2766277727C6
:102C7000CB0197F9089551DF08F48FEF08950BD039
:102C8000AFCF78DF28F07DDF18F0952309F069CF0A
:102C90006ECF1124EACFC6DFA0F3959FD1F3950F35
:102CA00050E0551F629FF001729FBB27F00DB11DD0
:102CB000639FAA27F00DB11DAA1F649F6627B00D60
:102CC000A11D661F829F2227B00DA11D621F739F49
:102CD000B00DA11D621F839FA00D611D221F749F57
:102CE0003327A00D611D231F849F600D211D822F9E
:102CF000762F6A2F11249F5750408AF0E1F08823E5
:102D00004AF0EE0FFF1FBB1F661F771F881F9150F1
:102D10005040A9F79E3F510570F023CFA6CF5F3FEB
:102D2000ECF3983EDCF3869577956795B795F79524
:102D3000E7959F5FC1F7FE2B880F911D96958795AC
:102D400097F90895FA01EE0FFF1F3096210531051E
:102D500099F16115710561F48038BFE39B0749F172
:102D600068949038810561F08038BFEF9B0741F08F
:102D7000992342F5FF3FE1053105210511F1E89462
:102D80000894E795D901AA2329F4AB2FBE2FF85F49
:102D9000D0F310C0FF5F70F4A695E0F7F73950F05C
:102DA00019F0FF3A38F49F779F930CD00F9007FCEF
:102DB000905808953EF0DBCE60E070E080E89FE33D
:102DC00008954FE79F775F934F933F932F932CD1B5
:102DD0002F913F914F915F9152DF6DC09F93D9DE4C
:102DE0000F9007FCEE5F0DCF11F40EF4C0CE8FC034
:102DF00021DFD0F39923D9F3CEF39F57550B87FFEB
:102E000094D00024A0E640EA90018058569597950A
:102E100028F4805C660F771F881F20F0261737077D
:102E2000480730F4621B730B840B202931294A2B8D
:102E3000A69517940794202531254A2758F7660F41
:102E4000771F881F20F026173707480730F4620BDA
:102E5000730B840B200D311D411DA09581F7B90125
:102E6000842F9158880F969587950895DF93D92FD1
:102E700090DEE695D7952AED3FE049E45FE3B33A6B
:102E80006207730784079507D7952AF0A2EA49ECF1
:102E9000906813DDA5DEECE3F1E073D0DD0F0BF0FD
:102EA00081D0DD0F0BF49058DF91089519F40EF0E6
:102EB00058CEDACE5CCEBEDEC8F39638C0F707F83F
:102EC0000F92E8942BE33AEA48EB5FE7E6DE0F92D5
:102ED0000F920F924DB75EB70F92E6D0EFE5F1E09B
:102EE0002BD04F915F91EF91FF91E595EE1FFF1F62
:102EF00049F0FE57E0684427EE0F441FFA95E1F7CA
:102F00004195550B58D00F9007FE4CC008959F3F38
:102F100031F0915020F4879577956795B795880F94
:102F2000911D9695879597F9089591505040660F99
:102F3000771F881FD2F70895DF93CF931F930F93C6
:102F4000FF92EF92DF927B018C01689405C0DA2E2C
:102F5000EF01A1DEFE01E894A591259135914591FF
:102F60005591AEF3EF01A9DCFE019701A801DA94B7
:102F700079F7DF90EF90FF900F911F91CF91DF9144
:102F800008959F938F937F936F93FF93EF939B018C
:102F9000AC0175DEEF91FF91CFDF2F913F914F9103
:102FA0005F916DCE9B01AC0160E070E080E89FE333
:102FB000DECCD7CDACCF3EDEE8F39923D9F3940F26
:102FC000511DBBF39150504094F059F0882332F0DA
:102FD000660F771F881F91505040C1F79E3F5105E3
:102FE00044F7880F911D9695879597F908955F3F4F
:102FF000ACF0983E9CF0BB27869577956795B79582
:1030000008F4B1609395C1F7BB0F58F711F460FF56
:10301000E8CF6F5F7F4F8F4F9F4FE3CF26CE0EF0ED
:1030200076CFA5CD68949DCD05DEC8F39923D1F365
:10303000C6F3DF93CF931F930F93FF92C92FDD2722
:1030400088232AF02197660F771F881FDAF720E080
:1030500030E040E85FEB9FE3883920F0803E30F0BD
:1030600021968F7719DCE7E8F1E003C015DCE4EB8B
:10307000F1E062DF8B01BE01EC01FB2E6F5771099D
:103080007595771F880B990B0DDD28E132E741E339
:103090005FE301DEAF2D9801AE01FF900F911F910C
:1030A000CF91DF910ADC9CCDFA01DC01AA0FBB1F96
:1030B0009B01AC01BF5728F42227332744275078BF
:1030C0001FC0B75188F4AB2F00244695379527953C
:1030D000011CA395D2F3002069F0220F331F441F77
:1030E000B395DAF30DD0D7CB61307105A0E88A072C
:1030F000B94630F49B01AC01662777278827907882
:10310000309621F02083318342835383089581E0F8
:1031100090E0F89428C0FB01DC0102C001900D9200
:1031200041505040D8F70895FB01DC018D9101908A
:1031300080190110D9F3990B0895F999FECF92BD2A
:1031400081BDF89A992780B50895262FF999FECF69
:103150001FBA92BD81BD20BD0FB6F894FA9AF99AB4
:0A3160000FBE01960895F894FFCF0A
:10316A00000000000102020203327C8900EDD968E6
:10317A0077000000590000000000000000D69FDC24
:10318A00A81817AA90437327F6B968EDF4DED40994
:10319A00FEE61C1C84DDE80B9929274EC400000FAB
:1031AA0003000000000099B7333B76941500F37CC6
:1031BA00000026149E988F0000006A31168F8C0535
:1031CA009600E7B73F3600000000000000AF669E99
:1031DA00D0385D8A6C20B95422AE7CED044C80381C
:1031EA007486EDCBFA57CBDC19E22E1DDF5506E5C6
:1031FA00CB01C36DA8B52F48837F00679AB2C886F2
:10320A00DBD0BC5416131586004E44BD7F9A1515A3
:10321A009001EA49B51653A78AEAF02FBD34AEE504
:10322A00559FBA48000000005C2447620000000075
:10323A000086CD00000000000000000000000045EC
:10324A006532CA11A20E0000000000CF000000A3E0
:10325A00699723000000000000005A68555F82B891
:10326A005108CC31AA2C532E00000000002302A0E2
:10327A0001ED01CB01DF016902CD03D403DB03E2D7
:10328A0003EB03F303FD0306041004464F4C4C5FA3
:10329A00434F4E4E454354454400535441525420E3
:1032AA0047554944494E470041524D494E470054FB
:1032BA00414B454F46460054414B454F46462049EF
:1032CA005320444F4E45004C414E44494E47004717
:1032DA004F545F534F4D455F504152414D0050414D
:1032EA0052414D5F534156454400474F545F504148
:1032FA0052414D5F4C4953545F52455100474F5418
:10330A005F504152414D5F56414C5F524551004D0D
:10331A004320697320524541445900464F4C4C5F43
:10332A00434F4E4E4543545F4C4F5354004F46460D
:10333A00535F58004F4646535F59004F4646535F06
:10334A005A00494E49545F504F53004442475F5414
:10335A00585400544B4F46465F414C5400464F4C1C
:10336A004C5F4E554D00464F4C4C5F49445F31000F
:0A337A00464F4C4C5F49445F32009F
:00000001FF
