:100000000C94FF010C9427020C9427020C942702F5
:100010000C9427020C9427020C9427020C942702BC
:100020000C9427020C9427020C9427020C942702AC
:100030000C9427020C9427020C9427020C9427029C
:100040000C94A7160C9427020C94F0060C94CA0684
:100050000C9427020C9427020C9427020C9427027C
:100060000C9427020C942702A107A107B507CB0720
:10007000C107D507DF07000816083A083A0805A89F
:100080004CCDB2D44EB93836A9020C50B9918688FD
:10009000083CA6AAAA2ABE000000803F0664EC1B0A
:1000A0003C04BC163E3BE5B93CC93C37C29E5A3DB8
:1000B000660498083EEA69AAAA3E000000803F074D
:1000C000634236B79BD8A71A39685618AEBAAB55F3
:1000D0008C1D3CB7CC5763BD6DEDFD753EF61772B8
:1000E00031BF000000803F08000000BE922449128A
:1000F0003EABAAAA2ABECDCCCC4C3E00000080BEAE
:10010000ABAAAAAA3E00000000BF000000803F008A
:1001100000000000084178D3BB4387D1133D190E7E
:100120003CC3BD4282AD2B3E68EC8276BED98FE1E6
:10013000A93E4C80EFFFBE01C4FF7F3F00000000DE
:100140000000464F4C4C5F49445F3200464F4C4CD8
:100150005F49445F3100464F4C4C5F4E554D005057
:100160004F535F5459504500544B4F46465F414CE6
:1001700054004442475F54585400494E49545F501C
:100180004F53004F4646535F5A004F4646535F5900
:10019000004F4646535F580091018A0183017A015E
:1001A000720168015F0156014C014201327C8900F5
:1001B000EDD9687700000059000000000000000041
:1001C000D69FDCA81817AA90437327F6B968EDF4F8
:1001D000DED409FEE61C1C84DDE80B9929274EC4F9
:1001E00000000F03000000000099B7333B76941520
:1001F00000F37C000026149E988F0000006A3116E0
:100200008F8C059600E7B73F360000000000000025
:10021000AF669ED0385D8A6C20B95422AE7CED0466
:100220004C80387486EDCBFA57CBDC19E22E1DDFFB
:100230005506E5CB01C36DA8B52F48837F00679AAB
:10024000B2C886DBD0BC5416131586004E44BD7F61
:100250009A15159001EA49B51653A78AEAF02FBD01
:1002600034AEE5559FBA48000000005C24476200A8
:100270000000000086CD000000000000000000002B
:100280000000456532CA11A20E0000000000CF0038
:100290000000A3699723000000000000005A685581
:1002A0005F82B85108CC31AA2C532E00091F0C00D4
:1002B0000E1C0320000000060000000000000000EB
:1002C000140219171E65161A100E1C201C1C161677
:1002D0001506062504040202040202030D0C25047F
:1002E00000001B190000000000441AB9E52A0604AA
:1002F000000B1200002514232103000000162725FF
:1003000035333533001C382A21000000000000007E
:100310001A202014203E2C405409FE100C242C409E
:1003200016060E0C6102027123064F2323160DFFE1
:100330000E122B08160E242B2920F30E5D006424C8
:100340003C1E2A08040C0F0D060F0E000C03081C9F
:100350002C0309160C122242620830130314181DD4
:100360002D042802CE071D000000001B2C161900CA
:10037000000000002A0E0000000000000000000045
:1003800000000803030607020E000000000008003A
:1003900000002A283FB6000000000000002034358D
:1003A00006022613FE241E1212330900000000006C
:1003B000240027002A0000000000250028002B0050
:1003C00004040404040404040202020202020303FB
:1003D0000303030301020408102040800102040803
:1003E0001020010204081020000000080002010093
:1003F000000304070000000000000000F1161124B3
:100400001FBECFEFD8E0DEBFCDBF11E0A0E0B1E06E
:10041000E4E7FCE302C005900D92A833B107D9F7D9
:1004200023E0A8E3B1E001C01D92AB3EB207E1F7C3
:1004300011E0CFEFD1E004C02197FE010E946919BD
:10044000CE3FD107C9F70E941E170C94381E0C949A
:100450000000CF92DF92EF92FF920F931F93CF9302
:10046000DF936C017A018B01C0E0D0E0CE15DF058F
:1004700089F0D8016D918D01D601ED91FC9101902B
:10048000F081E02DC6010995892B11F47E0102C08F
:100490002196ECCFC701DF91CF911F910F91FF9073
:1004A000EF90DF90CF900895FC01918D828D981789
:1004B00061F0828DDF01A80FB11D5D968C91928D48
:1004C0009F5F9F77928F90E008958FEF9FEF089541
:1004D000FC01918D828D981731F0828DE80FF11D0E
:1004E000858D90E008958FEF9FEF0895FC01918D29
:1004F000228D892F90E080589F4F821B91098F7722
:100500009927089589EF92E00E94760221E0892BD5
:1005100009F420E0822F0895FC01848DDF01A80FEB
:10052000B11DA356BF4F2C91848D90E001968F731F
:100530009927848FA689B7892C93A089B1898C913A
:1005400080648C93938D848D981306C00288F38900
:10055000E02D80818F7D80830895EF92FF920F932D
:100560001F93CF93DF93EC0181E0888F9B8D8C8D5F
:10057000981305C0E889F989808185FD24C0F62E8D
:100580000B8D10E00F5F1F4F0F731127E02E8C8D26
:10059000E8120CC00FB607FCFACFE889F989808110
:1005A00085FFF5CFCE010E948C02F1CF8B8DFE012D
:1005B000E80FF11DE356FF4FF0820B8FEA89FB89AC
:1005C0008081806207C0EE89FF896083E889F989AC
:1005D00080818064808381E090E0DF91CF911F91E2
:1005E0000F91FF90EF900895CF93DF93EC01888DEA
:1005F0008823C9F0EA89FB89808185FD05C0A88927
:10060000B9898C9186FD0FC00FB607FCF5CF8081AC
:1006100085FFF2CFA889B9898C9185FFEDCFCE01F6
:100620000E948C02E7CFDF91CF91089580E090E0A7
:10063000892B29F00E94820281110C9400000895F8
:10064000CF93DF93EC0181E00E945C1381E0809303
:100650005E02D0935902C09358020E949015609395
:100660005A0270935B0280935C0290935D02DF916B
:10067000CF9108950E94041E2F923F924F925F9255
:100680006F927F928F929F92AF92BF92CF92DF92A2
:10069000EF92FF920F931F93CF93DF93CDB7DEB707
:1006A000AC970FB6F894DEBF0FBECDBF2B013C0157
:1006B00049015A0118018701DA86C98620E030E035
:1006C00044E353E4C501B4010E94701920E030E016
:1006D00044EB53E40E94E6190E94581A28E631E0E0
:1006E000269FA001279F500D369F500D1124BA015F
:1006F000550F880B990B0E94901A9B01AC01C50104
:10070000B4010E946F194B015C0125E33AEF4EE8FA
:100710005CE3C301B2010E94841B6B017C0125E3F1
:100720003AEF4EE85CE3C501B4010E94841B6D877B
:100730007E878F87988B20E030E04AE353E4C50141
:10074000B4010E94701920E030E040EC50E40E94B7
:10075000E6190E94581AE985FA857183608320E0C2
:1007600030E040E652E4C301B2010E947F1B87FDE6
:1007700024C020E030E040E852E4C301B2010E940E
:10078000DC1987FF1AC020E030E040E450E4C501E6
:10079000B4010E947F1B87FD10C020E030E040E4E0
:1007A00051E4C501B4010E94DC1987FF06C080E254
:1007B00090E0E985FA859183808320E030E040E98C
:1007C00052E4C301B2010E947F1B87FD68C020E094
:1007D00030E048EA52E4C301B2010E94DC1987FF0D
:1007E0005EC020E030E0A901C501B4010E947F1B7A
:1007F00087FD0DC020E030E040E151E4C501B401C7
:100800000E94DC1987FF03C08FE190E044C020E024
:1008100030E040E151E4C501B4010E947F1B87FD37
:100820000DC020E030E048EA51E4C501B4010E9467
:10083000DC1987FF03C081E290E02DC020E030E0AA
:1008400048EA51E4C501B4010E947F1B87FD0DC039
:1008500020E030E044E052E4C501B4010E94DC191C
:1008600087FF03C083E290E016C020E030E044E060
:1008700052E4C501B4010E947F1B87FD10C020E037
:1008800030E048E252E4C501B4010E94DC1987FF60
:1008900006C085E290E0E985FA8591838083C701EF
:1008A000B6010E94411C9B01AC010E94841B24EDF7
:1008B0003AEB4BE55BE30E94841B9B01AC0160E0DB
:1008C00070E080E89FE30E946F190E944F1C9B011B
:1008D000AC0162E375EA82EC9AE40E94E619698F42
:1008E0007A8F8B8F9C8FC701B6010E948F1C698302
:1008F0007A838B839C839B01AC010E94841B2B0118
:100900003C01C701B6010E94E1194B015C019B014A
:10091000AC010E94841B20E138E74CE55BE30E94B8
:10092000841B6D837E838F839887E985FA85808118
:10093000918126E0289FB001299F700D1124675BEB
:100940007109072E000C880B990B0E94901A25E361
:100950003AEF4EE85CE30E94841B9B01AC016D857D
:100960007E858F8598890E946F199B01AC01C50116
:10097000B4010E94841B4B015C01A7019601C701D1
:10098000B6010E9470190E94411C698B7A8B8B8B77
:100990009C8B20E030E040E850E4C701B6010E94A3
:1009A000841B0E94411C6D8F7E8F8F8F98A320E047
:1009B00030E040EC50E4C701B6010E94841B0E9465
:1009C000411C69A37AA38BA39CA320E030E040E400
:1009D00050E4C501B4010E94F11B69877A878B87B7
:1009E0009C87A3019201C301B2010E94841B6D8701
:1009F0007E878F87988B20E030E040EA50E4C50185
:100A0000B4010E94F11B6D8B7E8B8F8B988F29EC2C
:100A100035EE4FE75FE3698D7A8D8B8D9C8D0E945B
:100A2000841B6DA37EA38FA398A7A301920160E00E
:100A300070E080E89FE30E946F192D813E814F8115
:100A400058850E94701929853A854B855C850E94DE
:100A5000841B20E030E040EC50E40E94E6199B014A
:100A6000AC01C501B4010E94701969877A878B8730
:100A70009C8720E030E040E951E4C301B2010E94CC
:100A8000841B9B01AC0160E070E080EA90E40E946E
:100A90006F192D853E854F8558890E94701969A769
:100AA0007AA78BA79CA720E030E040E952E46D8153
:100AB0007E818F8198850E94841B9B01AC0169A572
:100AC0007AA58BA59CA50E9470192EEC3CEC47E4FE
:100AD0005EE30E946F192D893E894F89588D0E94CF
:100AE000841B20E030E040EF52E40E94E6199B01B5
:100AF000AC0169857A858B859C850E9470199B0164
:100B0000AC016DA17EA18FA198A50E94841B20E05D
:100B100034E244EF58E40E947019F8016083718355
:100B20008283938320E030E040E850E4C501B401C3
:100B30000E94F11B69877A878B879C8720E030E0D1
:100B400040EC50E4C501B4010E94F11B6D8B7E8B1B
:100B50008F8B988F28E039EC4FE75FE3C701B60130
:100B60000E94841B6B017C012AE83FEE44EA5AE3B1
:100B700069897A898B899C890E94841B9B01AC01BD
:100B8000C701B6010E946F196B017C012EE631E4AA
:100B900041E355E36D8D7E8D8F8D98A10E94841B5E
:100BA0009B01AC01C701B6010E9470196B017C0169
:100BB00024E532E14CEE5FE269A17AA18BA19CA110
:100BC0000E94841B9B01AC01C701B6010E946F19F2
:100BD00022E335EA42EC5AE40E94841B698B7A8B4B
:100BE0008B8B9C8B29813A814B815C81698D7A8DBD
:100BF0008B8D9C8D0E94841B6B017C01A50194014F
:100C0000C501B4010E94841B20E030E040E05FE3B6
:100C10000E94841B4B015C01A301920160E070E023
:100C200080EA90E40E946F1969837A838B839C83A6
:100C300020E030E040E151E46D817E818F81988534
:100C40000E94841B9B01AC0169817A818B819C810C
:100C50000E94701969837A838B839C832D813E81E6
:100C60004F815885CA01B9010E94841B20E030E001
:100C700040E850E40E94841B9B01AC0169817A81A9
:100C80008B819C810E94701929853A854B855C85F2
:100C90000E94841B20E030E040EC51E40E94E61901
:100CA0009B01AC01C501B4010E9470194B015C01AC
:100CB00020E030E048E652E4C301B2010E94841B08
:100CC0009B01AC0160E070E084E792E40E946F1940
:100CD0002D853E854F8558890E9470192B013C0156
:100CE00020E030E046E154E46D817E818F8198857B
:100CF0000E94841B9B01AC01C301B2010E947019C8
:100D000022E639E14EE85FE30E946F192D893E89A2
:100D10004F89588D0E94841B20E030E044E354E466
:100D20000E94E6199B01AC01C501B4010E94701933
:100D30009B01AC01C701B6010E94841B9B01AC0161
:100D400069897A898B899C890E94701929EC35EE12
:100D50004FE75FE30E94841BF1016083718382830C
:100D60009383AC960FB6F894DEBF0FBECDBFDF9174
:100D7000CF911F910F91FF90EF90DF90CF90BF9098
:100D8000AF909F908F907F906F905F904F903F902B
:100D90002F9008951F920F920FB60F9211242F9348
:100DA0003F934F935F936F937F938F939F93AF93F3
:100DB000BF93EF93FF9389EF92E00E948C02FF9123
:100DC000EF91BF91AF919F918F917F916F915F91C3
:100DD0004F913F912F910F900FBE0F901F9018953C
:100DE0001F920F920FB60F9211242F938F939F9300
:100DF000EF93FF93E0910903F0910A038081E09162
:100E00000F03F091100382FD12C0908180911203B4
:100E10008F5F8F7720911303821751F0E0911203B7
:100E2000F0E0E750FD4F958F8093120301C0808161
:100E3000FF91EF919F918F912F910F900FBE0F9087
:100E40001F90189590E1E8E3F1E0DF011D929A957B
:100E5000E9F7E82FF0E0EE0FFF1FE856FE4F65912F
:100E6000749188E391E00C941B1EFB012081822782
:100E700090E1899F900111242827822F90E0582F1C
:100E800044279C0163E0220F331F6A95E1F7422754
:100E90005327218130E02427352774E095958795E5
:100EA0007A95E1F7822793279183808308952F9283
:100EB0003F924F925F926F927F928F929F92AF92EA
:100EC000BF92CF92DF92EF92FF920F931F93CF9337
:100ED000DF93CDB7DEB7C258D2400FB6F894DEBF6D
:100EE0000FBECDBF9E012F5F3F4F190181E191E001
:100EF0008C0F9D1F0896C958DD4F99838883C7576B
:100F0000D240A1E2B2E0AC0FBD1F5896CF57DD4FE3
:100F1000B983A883C158D24089EF92E00E9454025D
:100F20008C01F82E1092D6038091D9039091DA03A8
:100F30008B30910508F0D3C0FC01EC5CFF4F0C94A2
:100F40006919BEEF0B13CBC082E090E09093DA03F7
:100F50008093D90310924B0100934A018FEF9FEFCA
:100F60009093490180934801BAC000934B011092BD
:100F7000DB0368E471E0802F0E94350784E090E095
:100F80003AC000934C0168E471E0802F0E9435075D
:100F900083E090E030C000934D0168E471E0802F61
:100FA0000E94350785E090E026C000934E0168E47A
:100FB00071E0802F0E94350786E090E01CC0F801A8
:100FC000FF27E455FD4FE49180914B018E1719F0F6
:100FD00081E090E010C000934F0168E471E0802F41
:100FE0000E94350780914B01811103C088E090E099
:100FF00002C087E090E09093DA038093D9036FC03A
:10100000E091DB0381E08E0F8093DB03F0E0E05B97
:10101000FE4F008368E471E0802F0E9435079091B5
:10102000DB0380914B0198135AC0E0CFE0914F0150
:10103000F0E0E455FE4F849168E471E00E943507CA
:1010400080914801909149019927980133272817E9
:10105000390719F08AE090E002C089E090E09093AF
:10106000DA038093D903E091DB03F0E0E05BFE4F0D
:10107000008335C00A97B9F0E0914901CF58DD4FA0
:10108000E883C157D240CE58DD4F1882C257D240B4
:10109000C8019927CF58DD4F28813981C157D240E7
:1010A0008217930711F082E001C081E08093D6039C
:1010B00081E090E09093DA038093D903E091DB0321
:1010C000F0E0EF5AFE4F008380E191E0E8E4F1E0C8
:1010D000DE01AF5EBE4F01900D920197E1F72091C6
:1010E000D603213099F480914C018093DC038091E8
:1010F000DE039091DF03009721F41092E103109238
:10110000E00301969093DF038093DE0380914B010F
:10111000CC5EDE4F8883C451D1408091DB031092B6
:10112000D803223009F084C090E0FC01EF5AFE4F52
:101130004081042E000C550B542F4427FC01E05B2A
:10114000FE4F2081022E000C330BCA01822B932B01
:10115000CF5EDE4F99838883C151D14081E0809377
:10116000D8031092D6033EEFF3125BC082E090E00A
:101170009093DA038093D90310924B018FEF9FEF86
:1011800090934901809348012AC0CA5EDE4F88814E
:10119000C651D140E92CF12C8E9C80018F9C100D02
:1011A0001124D801A858BD4F5D019C91891709F4FD
:1011B00045C093948091F602981638F3CA5EDE4FCC
:1011C0009881C651D140913009F4D1C0CA5EDE4F3A
:1011D0008881C651D1408F3F11F40C94291289EFB8
:1011E00092E00E947602181619060CF495CECE579E
:1011F000DD4F0FB6F894DEBF0FBECDBFDF91CF91AC
:101200001F910F91FF90EF90DF90CF90BF90AF9024
:101210009F908F907F906F905F904F903F902F9016
:10122000089581E090E09093DA038093D903D7CFBB
:101230002223A9F2912C9EE2892EBCCFC85EDE4FFC
:101240009881C851D140992309F46EC0913209F0B8
:10125000B0CFC75DDE4F688179818A819B81C95299
:10126000D1400E94901A20E030E04AE754E40E9406
:10127000E619D5015A966D937D938D939C935D9756
:10128000F801E856FD4F6F01980122573D4F790153
:1012900006571D4FCF5DDE4F688179818A819B8122
:1012A000C152D1400E94901A20E836E948E15BE43F
:1012B0000E94E6192B013C01C35EDE4F68817981F3
:1012C0008A819B81CD51D1400E94901A20E836E955
:1012D00048E15BE40E94E619A30192010E943C03ED
:1012E0002EEF3CE64FE75FE3D50152966D917D917D
:1012F0008D919C9155970E94841BF501628B738B95
:10130000848B958B2DE03AED4FE75FE36689778913
:10131000808D918D0E94841BD50156966D937D938F
:101320008D939C93599745CFFD019181911111C0E7
:1013300021E021839091A7029F5F9093A7020E94D2
:10134000E7148091F302813021F486E191E00E945C
:1013500020140E9490158E9CF0018F9CF00D11249A
:10136000E858FD4F628373838483958322CFC85EE0
:10137000DE4F8881C851D140813209F4E0C6833202
:10138000B9F0811123CF8091A602811106C09093FC
:10139000A60288EE93E00E9420030E9490156093BD
:1013A000AB027093AC028093AD029093AE020ECF6D
:1013B000C95DDE4F88819981C752D1408D3DB5E02E
:1013C0009B0708F483C680915F02813009F4FECE4A
:1013D000512CFEE2DF2EA9E5CA2EBBE07B2E10E1E8
:1013E000E12EFF24F3940CE5A02EB12C6624639427
:1013F0000CE48EED882E912C8091F602581608F0A0
:1014000046C0D59CF0011124E858FD4F1081809111
:10141000F302813021F489E191E00E94201484E0FC
:1014200090E0A0E0B0E089879A87AB87BC871D87F2
:10143000CE86788649E566E0C1010E94E212C101CC
:101440000E94A413D101F7011D923197E9F7BEA2C2
:10145000ADA21FA369A6088748E961E2C1010E9405
:10146000E212C1010E94A413D101F7011D9231972C
:10147000E9F79EA28DA21FA3088748E961E2C10196
:101480000E94E212C1010E94A4135394B5CF64EFED
:1014900071E080E090E00E94561510E00EE270E9E5
:1014A000E72EFF24F394ECE4DE2E8091F602181769
:1014B000F0F5019FF0011124E858FD4FC0808091A4
:1014C000F302813021F48CE191E00E94201480E04D
:1014D00090E0A0E8BFE389879A87AB87BC871D8629
:1014E0001E861F86188A198A1A8A1B8A1C8A1D8AD8
:1014F0001E8A1F8A188E198E1A8E1B8E1C8E1D8EA8
:101500001E8E1F8E18A219A21AA21BA21CA2FEA236
:10151000EDA2CFA218A619A6D88648E961E2C101BA
:101520000E94E212C1010E94A4131F5FBECF6CEDA6
:1015300075E080E090E00E94561510E04EE2A42E87
:1015400056E1E52EF12C0CE460E1C62EDD24D394A7
:101550008091F602181708F060C0A19EF0011124D6
:10156000E858FD4FB0806091F40270E080E090E0B8
:101570000E948E1A2B013C018091F302813021F4EC
:101580008FE191E00E94201419861A861B861C8622
:101590001D861E861F86188A198A1A8A1B8A1C8A2B
:1015A0001D8A1E8A1F8A188E198E1A8E1B8E1C8EFB
:1015B0001D8E1E8E1F8E18A249A25AA26BA27CA25B
:1015C000FEA2EDA2BFA218A619A6088748E961E20B
:1015D000C1010E94E212C1010E94A413D101F601CF
:1015E0001D923197E9F749A25AA26BA27CA2FEA2F2
:1015F000EDA2BFA2088748E961E2C1010E94E212A0
:10160000C1010E94A4138091F302813021F482E28F
:1016100091E00E9420141F5F9BCF4091BB0250912C
:10162000BC026091BD027091BE024093AF02509324
:10163000B0026093B1027093B2024091BF02509128
:10164000C0026091C1027091C2024093B3025093F4
:10165000B4026093B5027093B6024091C3025091F8
:10166000C4026091C5027091C6024093B7025093C4
:10167000B8026093B9027093BA029091F202992372
:1016800049F0913009F020C5C25ADD4F1882CE557D
:10169000D2402CC0882309F417C580918A0290910A
:1016A0008B02A0918C02B0918D0280937E02909368
:1016B0007F02A0938002B093810280918E0290916C
:1016C0008F02A0919002B091910280938202909338
:1016D0008302A0938402B093850210928602109236
:1016E00087021092880210928902EEC48091F6025D
:1016F000C25ADD4F3881CE55D240381708F0E4C4C5
:10170000C25ADD4FF881CE55D240AF2EB12C609138
:10171000EF0270E080E090E00E94901A2091AF020A
:101720003091B0024091B1025091B2020E94701902
:101730006B017C012EE22A9D80012B9D100D11244E
:1017400008581D4FD80116966D937D938D939C93E9
:1017500019976091F00270E080E090E00E94901A8A
:101760002091B3023091B4024091B5025091B6027B
:101770000E947019C65ADD4F688379838A839B83E0
:10178000CA55D240F8016287738784879587609134
:10179000F10270E080E090E00E94901A2091B70280
:1017A0003091B8024091B9025091BA020E9470196A
:1017B000C459DD4F688379838A839B83CC56D2409A
:1017C000D8011E966D937D938D939C935197BC91F8
:1017D000C059DD4FB883C057D2400091C902109163
:1017E000CA020E94901569877A878B879C8720E8B8
:1017F00036E948E15BE4C701B6010E94841B0E9400
:10180000581A6D877E878F87988B20E836E948E1E4
:101810005BE4C65ADD4F688179818A819B81CA5514
:10182000D2400E94841B0E94581A698B7A8B8B8B42
:101830009C8BC459DD4F88819981AA81BB81CC568C
:10184000D2408D8B9E8BAF8BB88F198E1A8E1B8ECC
:101850001C8E1D8E1E8E1F8E18A219A21AA21BA2EC
:101860001CA21DA21EA21FA218A619A61AA61BA67C
:101870001CA61DA61EA61FA618AA19AA1AAA1BAA4C
:101880001CAA1DAA1EAA1FAA18AEA8EFBFE0BAAFD5
:10189000A9AFC059DD4FB881C057D240BBAF1CAE15
:1018A000E6E0EDAFF6E5F88745E065E3C1010E94AB
:1018B000E212C1010E94A413D101E0E1F1E01D9206
:1018C0003197E9F72EEF3CE64FE75FE3C701B6013A
:1018D0000E94E61929EC35EE4FE75FE30E94E61916
:1018E00027E63BE742EC5AE40E94E6196B017C01D3
:1018F0009B01AC010E9470190E94411C2B013C010C
:1019000020E030E040E850E4C701B6010E94841BAB
:101910000E94411C4B015C0120E030E040EC50E4AF
:10192000C701B6010E94841B0E94411CCA5ADD4FA8
:10193000688379838A839B83C655D2402FEE32E138
:1019400045EA5AE3C301B2010E94841B9B01AC012A
:10195000C701B6010E9470196B017C0123EF3DE5C0
:1019600048E755E3C501B4010E94841B9B01AC010B
:10197000C701B6010E9470196B017C0128E937EE9E
:101980004FE750E3CA5ADD4F688179818A819B8194
:10199000C655D2400E94841B9B01AC01C701B60111
:1019A0000E947019C05ADD4F688379838A839B83B4
:1019B000C056D2400E94411C4B015C019B01AC010E
:1019C0000E94841B24ED3AEB4BE55BE30E94841BF1
:1019D0009B01AC0160E070E080E89FE30E946F191A
:1019E0000E944F1C9B01AC0162E375EA82EC9AE411
:1019F0000E94E619CC59DD4F688379838A839B83E3
:101A0000C456D240C05ADD4F688179818A819B815A
:101A1000C056D2400E948F1C6B017C019B01AC011F
:101A20000E94841BCA5ADD4F688379838A839B8313
:101A3000C655D240C05ADD4F688179818A819B8129
:101A4000C056D2400E94E119C859DD4F688379839E
:101A50008A839B83C856D2409B01AC010E94841BA1
:101A600020E138E74CE55BE30E94841B2B013C013D
:101A700024ED3AEB4BE55BE3C501B4010E94841B06
:101A80009B01AC0160E070E080E89FE30E946F1969
:101A900020E030E040EC5FE30E94F11B4B015C0171
:101AA0002DE03AED4FE75FE3C65ADD4F688179815B
:101AB0008A819B81CA55D2400E94E61920E034E217
:101AC00044EF58E40E946F19C65ADD4F688379834A
:101AD0008A839B83CA55D24029EC35EE4FE75FE3FA
:101AE000CC59DD4F688179818A819B81C456D2406F
:101AF0000E94841B9B01AC01C65ADD4F688179812D
:101B00008A819B81CA55D2400E94E619C65ADD4F90
:101B1000688379838A839B83CA55D24020E030E072
:101B200040E850E40E94F11BC758DD4F6883798379
:101B30008A839B83C957D240CA5ADD4F2881398195
:101B40004A815B81C655D240CA01B9010E94841BFB
:101B5000CD58DD4F688379838A839B83C357D240F6
:101B600020E030E040EC50E4C65ADD4F68817981D6
:101B70008A819B81CA55D2400E94F11BC358DD4F18
:101B8000688379838A839B83CD57D240A7019601CE
:101B9000CC59DD4F688179818A819B81C456D240BE
:101BA0000E94841B6B017C01A501940160E27EEF21
:101BB00081EC9AE40E94E6199B01AC01C701B601D1
:101BC0000E94E619CC59DD4F688379838A839B8311
:101BD000C456D240C65ADD4F288139814A815B8183
:101BE000CA55D240CA01B9010E94841B20E030E0EE
:101BF00040E05FE30E94841B6B017C0120E030E049
:101C000040E450E4CA5ADD4F688179818A819B8122
:101C1000C655D2400E94841B20E030E040EA50E4E8
:101C20000E9470194B015C0120E030E040E251E479
:101C3000C301B2010E94841B9B01AC01C501B40128
:101C40000E9470194B015C0120E030E040E850E454
:101C5000C301B2010E94841BA30192010E94841B54
:101C60009B01AC01C501B4010E946F1922E137E06C
:101C700048EF5CE30E946F19C758DD4F2881398116
:101C80004A815B81C957D2400E94841B20E030E02A
:101C900040EC51E40E94E6199B01AC01C701B6017A
:101CA0000E946F196B017C0120E030E044EB52E4AC
:101CB000CA5ADD4F688179818A819B81C655D2409D
:101CC0000E94841B20E030E044E752E40E94701937
:101CD0004B015C0120E030E045E953E4C301B2016F
:101CE0000E94841B9B01AC01C501B4010E947019C4
:101CF0004B015C0120E030E044E352E4CD58DD4F7D
:101D0000688179818A819B81C357D2400E94841B5C
:101D10009B01AC01C501B4010E94701920E336E0BB
:101D200049E55FE30E946F194B015C01A301920139
:101D3000C301B2010E94841B20E030E040E450E483
:101D40000E94841B9B01AC01C501B4010E946F1964
:101D5000C358DD4F288139814A815B81CD57D240FC
:101D60000E94841B20E030E044E354E40E94E61922
:101D70009B01AC01C701B6010E9470199B01AC0127
:101D8000CC59DD4F688179818A819B81C456D240CC
:101D90000E94841B9B01AC01C05ADD4F6881798190
:101DA0008A819B81C056D2400E946F19C05ADD4F74
:101DB000688379838A839B83C056D24020E030E0D9
:101DC00040E450E4C65ADD4F688179818A819B8165
:101DD000CA55D2400E94F11B6B017C0120E030E02B
:101DE00040EA50E4C65ADD4F688179818A819B813F
:101DF000CA55D2400E94F11BCC59DD4F68837983CC
:101E00008A839B83C456D240CA5ADD4F28813981C8
:101E10004A815B81C655D240CA01B9010E9470193E
:101E200020E030E040E85FE30E947019A3019201D6
:101E30000E947019A70196010E94841B20E030E0E7
:101E400040EC50E40E94E6199B01AC01C65ADD4FFC
:101E5000688179818A819B81CA55D2400E946F191D
:101E60006B017C01A3019201C301B2010E947019B0
:101E70009B01AC0160E070E080EA90E40E946F1981
:101E80004B015C0120E030E040EE51E4CA5ADD4FE6
:101E9000688179818A819B81C655D2400E94841BCA
:101EA0009B01AC01C501B4010E9470194B015C019A
:101EB00020E030E040E450E4C301B2010E94841B02
:101EC000A30192010E94841B9B01AC01C501B401D6
:101ED0000E946F1920E138E74CED5CE30E94701915
:101EE0004B015C0120E030E040EC51E4CD58DD4F87
:101EF000688179818A819B81C357D2400E94841B6B
:101F00009B01AC01C501B4010E947019CC59DD4F91
:101F1000288139814A815B81C456D2400E94841B4A
:101F200020E030E040EF52E40E94E6199B01AC0152
:101F3000C701B6010E947019C859DD4F2881398147
:101F40004A815B81C856D2400E94E61920EE3EE2EB
:101F500045E652E40E94841B6B017C0120EE3EE2C8
:101F600045E652E4C05ADD4F688179818A819B81C0
:101F7000C056D2400E94841B20E836E948E15BE469
:101F80000E94841B0E94581ACF5DDD4F68837983BD
:101F90008A839B83C152D240F6E0F09FB001F19F4B
:101FA000700D1124675B7109072E000C880B990BCB
:101FB0000E94901AA70196010E94701920E836E944
:101FC00048E15BE40E94841B0E94581ACB5DDD4F00
:101FD000688379838A839B83C552D240C459DD4F7D
:101FE000688179818A819B81CC56D2400E94581A9F
:101FF000C75DDD4F688379838A839B83C952D24052
:10200000C35DDD4F188219821A821B82CD52D240E5
:10201000CF5CDD4F188219821A821B82C153D240D5
:10202000CB5CDD4F188219821A821B82C553D240C5
:10203000C75BDD4F188219821A821B82C954D240B5
:10204000C35BDD4F188219821A821B82CD54D240A5
:10205000CF5ADD4F188219821A821B82C155D24095
:10206000C059DD4F2881C057D240CB5ADD4F28835D
:10207000C555D240CF57DD4FA881B981C158D24054
:10208000E0E11D92EA95E9F785E3FE01EF5DFD4F82
:10209000DE01199601900D928A95E1F7F3EFF8872A
:1020A00045E565E3C1010E94E212C1010E94A4134B
:1020B000C25ADD4F2881CE55D2402F5FC25ADD4F24
:1020C0002883CE55D24012CB81E032C08C3D954062
:1020D00009F47CC880915F02813009F077C81092C2
:1020E000AF021092B0021092B1021092B20210929E
:1020F000B3021092B4021092B5021092B60280910F
:10210000F302813021F485E291E00E94201410E076
:102110000EE28091F602181750F4019FF00111248D
:10212000E858FD4F80810E9412151F5FF2CF82E0B8
:1021300080935F0288EC90E00E94200347C8809162
:10214000DF029091E002A091E102B091E20280935F
:10215000DB029093DC02A093DD02B093DE020E94CA
:1021600090156093DF027093E0028093E1029093F8
:10217000E2024091DF025091E0026091E102709131
:10218000E2028091DB029091DC02A091DD02B0912D
:10219000DE02FA01E81BF90BC25ADD4FF983E8832E
:1021A000CE55D240C75DDE4F688179818A819B819F
:1021B000C952D1400E94901A20E030E04AE754E42E
:1021C0000E94E6196093C3027093C4028093C50213
:1021D0009093C602CF5DDE4F688179818A819B81B1
:1021E000C152D1400E94901A20E836E948E15BE4F0
:1021F0000E94E6194B015C01C35EDE4F6881798164
:102200008A819B81CD51D1400E94901A20E836E905
:1022100048E15BE40E94E61929ECC22E22E0D22EAE
:102220003FEBE32E32E0F32E0BEB12E0A50194011D
:102230000E943C032EEF3CE64FE75FE36091BB0258
:102240007091BC028091BD029091BE020E94841BDD
:102250002B013C016093BB027093BC028093BD02D2
:102260009093BE022DE03AED4FE75FE36091BF022D
:102270007091C0028091C1029091C2020E94841BA1
:102280004B015C016093BF027093C0028093C10256
:102290009093C202CD5CDE4F88819981C353D140B7
:1022A0009093C8028093C702C35DDE4F6881798135
:1022B000CD52D140072E000C880B990B0E94901A2A
:1022C000CA5ADD4F688379838A839B83C655D2407F
:1022D0006093CB027093CC028093CD029093CE0298
:1022E000C15DDE4F68817981CF52D140072E000C4D
:1022F000880B990B0E94901AC65ADD4F6883798328
:102300008A839B83CA55D2406093CF027093D002D8
:102310008093D1029093D202CF5CDE4F68817981A5
:10232000C153D140072E000C880B990B0E94901AC4
:102330006B017C016093D3027093D4028093D50229
:102340009093D6022091AF023091B0024091B10239
:102350005091B202C301B2010E946F1960936C02E6
:1023600070936D0280936E0290936F022091B3027E
:102370003091B4024091B5025091B602C501B4014A
:102380000E946F19609370027093710280937202C1
:10239000909373022091B7023091B8024091B90234
:1023A0005091BA026091C3027091C4028091C5023B
:1023B0009091C6020E946F19609374027093750227
:1023C0008093760290937702C25ADD4F288139813B
:1023D000CE55D240B90180E090E00E948E1A4B01A8
:1023E0005C019B01AC01CA5ADD4F688179818A8109
:1023F0009B81C655D2400E94841B609360027093FB
:1024000061028093620290936302A5019401C65A0F
:10241000DD4F688179818A819B81CA55D2400E94B3
:10242000841B6093640270936502809366029093AC
:102430006702A5019401C701B6010E94841B609345
:1024400068027093690280936A0290936B020C9405
:10245000E608C85EDE4F8881C851D140853109F455
:1024600050C0873129F0843111F00C94EF0852C02C
:1024700088EC90E00E942003CC5EDE4F4881C4517E
:10248000D140483108F047E187E1D1011D928A959A
:10249000E9F750E0C958DD4F68817981C757D240CC
:1024A000C1010E94091E10E0812F0E942207BE0177
:1024B000695F7F4F0E94121E892BF1F4E12EF12CEF
:1024C00069817A818B819C810E945F1AF701E151B9
:1024D000FD4F6083C7010E942A1E812F0E9469144C
:1024E0008091F302813011F00C94EF0888E291E0C2
:1024F0000E9420140C94EF081F5F1A30A9F60C9468
:10250000EF0810E0812F0E9469141F5F1A30D1F785
:102510000C94EF08CC5EDE4F4881C451D140453168
:1025200008F044E184E1F10111928A95E9F750E065
:10253000C958DD4F68817981C757D240C1010E94D7
:10254000091E89819A818F3FFFEF9F0791F410E068
:10255000812F0E942207BE016B5F7F4F0E94121ED7
:10256000892B11F4812F05C01F5F1A3089F70C9455
:10257000EF080E9469140C94EF083FB7F89480911B
:10258000E7039091E803A091E903B091EA0326B52F
:10259000A89B05C02F3F19F00196A11DB11D3FBF9B
:1025A000BA2FA92F982F8827820F911DA11DB11D29
:1025B000BC01CD0142E0660F771F881F991F4A9525
:1025C000D1F708958F929F92AF92BF92CF92DF92F0
:1025D000EF92FF920F931F93CF93DF9300D0CDB76D
:1025E000DEB78C01D62EC42E8EEFD80112968C93B6
:1025F000129713966C93139783E615968C93159701
:1026000016961C9216979091DD0314969C939F5FEB
:102610009093DD038FEF9FEF9A8389835801B3E096
:10262000AB0EB11C7801E8E0EE0EF11CAE14BF0455
:1026300049F0BE016F5F7F4FD5018D915D010E9412
:102640003507F4CF89819A81F801918380835701FE
:1026500083814701880E911CB801A814B90431F098
:10266000D5018D915D010E943507F6CF8C2D0E941A
:102670003507F8018381F701E80FF11DD8018C912E
:10268000808313968C911397F701E80FF11D119633
:102690008C9181838D2D90E008960F900F90DF91A3
:1026A000CF911F910F91FF90EF90DF90CF90BF904F
:1026B000AF909F908F900895EFEEF3E02491EBEDB3
:1026C000F3E09491E7ECF3E0E491EE2309F43BC0EE
:1026D000222339F1233091F038F42130A9F022304F
:1026E00001F524B52F7D12C0273091F02830A1F0DC
:1026F0002430B9F4209180002F7D03C02091800008
:102700002F77209380000DC024B52F7724BD09C0FA
:102710002091B0002F7703C02091B0002F7D20932F
:10272000B000F0E0EE0FFF1FEA54FC4FA591B4910A
:102730002FB7F894EC91811103C090959E2301C0AE
:102740009E2B9C932FBF0895AF92BF92CF92DF92A2
:10275000EF92FF920F931F93CF93DF93CDB7DEB726
:10276000C051D1400FB6F894DEBF0FBECDBF5C01A3
:10277000DC0113960C9110E07801B6E0EB0EF11C31
:10278000BC016E5F7F4FFE0131966F01A701CF0143
:102790000E94091EF601EE0DFF1DD5019C911196B8
:1027A0008C9190838183085F1F4F7601F7016191BF
:1027B0007F0189EF92E00E94AD02C7018C199D094B
:1027C0008017910798F3C05FDE4F0FB6F894DEBF15
:1027D0000FBECDBFDF91CF911F910F91FF90EF9072
:1027E000DF90CF90BF90AF900895CF93DF93CDB798
:1027F000DEB7C051D1400FB6F894DEBF0FBECDBFDB
:1028000019861A861B861C8682E18D871E861F8686
:10281000188A83E0898B188642E369E0CE0101962D
:102820000E94E212CE0101960E94A413C05FDE4F07
:102830000FB6F894DEBF0FBECDBFDF91CF910895E4
:10284000CF93DF93CDB7DEB7C354D1400FB6F89422
:10285000DEBF0FBECDBFFC0186E0CF5EDE4F8883BA
:10286000C151D140309759F482E3E1E1F1E0EC0F3E
:10287000FD1F3196DF011D928A95E9F70AC092E3A8
:10288000A1E1B1E0AC0FBD1F119601900D929A9598
:10289000E1F783E3FE01EF5EFE4FDE011996019042
:1028A0000D928A95E1F78DEF888743E563E3CE01CA
:1028B00001960E94E212CE0101960E94A413CD5B04
:1028C000DE4F0FB6F894DEBF0FBECDBFDF91CF91C4
:1028D00008958F929F92AF92BF92FF920F931F9392
:1028E000CF93DF93CDB7DEB7C952D1400FB6F8947E
:1028F000DEBF0FBECDBFF82E082F10E0F801E1516A
:10290000FD4F608170E080E090E00E948E1A4B01E4
:102910005C018F2D0E942207FC01CF5EDE4F888272
:102920009982AA82BB82C151D1408AE090E0CB5EFD
:10293000DE4F99838883C551D140C95EDE4F19832C
:102940000883C751D14089E0C75DDE4F8883C952F3
:10295000D140309759F480E1E1E1F1E0EC0FFD1F47
:102960003896DF011D928A95E9F70AC090E1A1E14E
:10297000B1E0AC0FBD1F189601900D929A95E1F74A
:1029800089E1FE01EF5EFE4FDE01199601900D9286
:102990008A95E1F786E188874CED69E1CE010196E1
:1029A0000E94E212CE0101960E94A413C75DDE4F81
:1029B0000FB6F894DEBF0FBECDBFDF91CF911F9150
:1029C0000F91FF90BF90AF909F908F900895CF93FD
:1029D000DF93CDB7DEB7C051D1400FB6F894DEBF5C
:1029E0000FBECDBF2AE030E03A8729878B871C864F
:1029F00086E08D8781E08E8782E4888744E966E0FF
:102A0000CE0101960E94E212CE0101960E94A4130B
:102A1000C05FDE4F0FB6F894DEBF0FBECDBFDF91B3
:102A2000CF910895CF93DF93CDB7DEB7C051D1409A
:102A30000FB6F894DEBF0FBECDBF19861A861B866F
:102A40001C861D861E861F86188A198A1A8A1B8A6A
:102A50001C8A1D8A1E8A1F8A188E198E1A8E1B8E3A
:102A60001C8E1D8E1E8E1F8E18A219A21AA21BA2CA
:102A70001CA225E130E03EA32DA38FA318A619A622
:102A80008CE4888748E961E2CE0101960E94E21257
:102A9000CE0101960E94A413C05FDE4F0FB6F894DA
:102AA000DEBF0FBECDBFDF91CF9108958F929F9271
:102AB000AF92BF92CF92DF92EF92FF926B017C01B7
:102AC0000E94BD124B015C01C114D104E104F10468
:102AD000F1F00E94BD12DC01CB0188199909AA0905
:102AE000BB09883E9340A105B10570F321E0C21AED
:102AF000D108E108F10888EE880E83E0981EA11C39
:102B0000B11CC114D104E104F10419F7DDCFFF9029
:102B1000EF90DF90CF90BF90AF909F908F900895EF
:102B20002FB7F8946091E3037091E4038091E5037B
:102B30009091E6032FBF0895CF93DF93CDB7DEB713
:102B4000C051D1400FB6F894DEBF0FBECDBF0E947A
:102B5000901519861A861B861C861D861E861F8662
:102B6000188A698B7A8B8B8B9C8B82E0888749E8EB
:102B70006CE0CE0101960E94E212CE0101960E9405
:102B8000A413C05FDE4F0FB6F894DEBF0FBECDBFFB
:102B9000DF91CF9108954F925F926F927F92AF92A3
:102BA000CF92DF92EF92FF920F931F93CF93DF9319
:102BB000CDB7DEB7C851D1400FB6F894DEBF0FBE17
:102BC000CDBFCF5EDE4F688379838A839B83C151FB
:102BD000D14027013801CB5EDE4F2883C551D1405B
:102BE000CA5EDE4F3883C651D140C95EDE4F48838E
:102BF000C751D140C85EDE4F5883C851D1400E94B2
:102C0000901569877A878B879C87CF5EDE4F888196
:102C10009981AA81BB81C151D1408D879E87AF87A1
:102C2000B88BCB5EDE4F2881C551D140CA5EDE4FE6
:102C30003881C651D140C95EDE4F4881C751D1406D
:102C4000C85EDE4F5881C851D140298B3A8B4B8BDF
:102C50005C8B77FA709477F870944D8A5E8A6F8AED
:102C6000788E198E1A8E1B8E1C8E1D8E1E8E1F8EB8
:102C700018A219A21AA21BA21CA21DA21EA21FA268
:102C800018A619A61AA61BA61CA61DA61EA61FA638
:102C900018AA19AA1AAA1BAA1CAA1DAA1EAA1FAA08
:102CA00018AE88EF9FE09AAF89AFABAE1CAE81E063
:102CB0008DAF84E588874FE865E38E010F5F1F4F76
:102CC000C8010E94E212C8010E94A41380E191E0B1
:102CD000D801FC011D923197E9F780E090E0A4E370
:102CE000B3E489879A87AB87BC8783E790E09EA38C
:102CF0008DA3AFA2B60180E090E00E948E1A20E082
:102D000030E048EC52E40E94E6190E945F1A69A77D
:102D10008CE4888748E961E2C8010E94E212C80198
:102D20000E94A413C85EDE4F0FB6F894DEBF0FBE3C
:102D3000CDBFDF91CF911F910F91FF90EF90DF906A
:102D4000CF90AF907F906F905F904F9008951F92BB
:102D50000F920FB60F9211242F933F938F939F934F
:102D6000AF93BF938091E3039091E403A091E503B7
:102D7000B091E6033091E20323E0230F2D3720F4D6
:102D80000196A11DB11D05C026E8230F0296A11DC5
:102D9000B11D2093E2038093E3039093E403A09397
:102DA000E503B093E6038091E7039091E803A091D7
:102DB000E903B091EA030196A11DB11D8093E703D9
:102DC0009093E803A093E903B093EA03BF91AF9116
:102DD0009F918F913F912F910F900FBE0F901F9059
:102DE0001895E9EFF2E01382128288EE93E0A0E0FA
:102DF000B0E084839583A683B7838AE091E09183D2
:102E0000808385EC90E09587848784EC90E09787B9
:102E1000868780EC90E0918B808B81EC90E0938BA7
:102E2000828B82EC90E0958B848B86EC90E0978B84
:102E3000868B118E128E138E148E0895789484B51D
:102E4000826084BD84B5816084BD85B5826085BDA6
:102E500085B5816085BD80916E00816080936E0034
:102E60001092810080918100826080938100809126
:102E700081008160809381008091800081608093D7
:102E800080008091B10084608093B1008091B00097
:102E900081608093B00080917A00846080937A0092
:102EA00080917A00826080937A0080917A008160BC
:102EB00080937A0080917A00806880937A001092E3
:102EC000C100EBEDF3E02491E7ECF3E0849188237B
:102ED00099F090E0880F991FFC01E455FC4FA591F3
:102EE000B491FC01EA54FC4F859194918FB7F8940A
:102EF000EC91E22BEC938FBF80E00E945C13E09199
:102F00000903F0910A0382E08083E0910903F091C4
:102F10000A031082E0910503F09106031082E0910C
:102F20000703F091080380E1808310921103E09180
:102F30000D03F0910E0386E08083E0910B03F09186
:102F40000C03808180618083E0910B03F0910C037E
:102F5000808188608083E0910B03F0910C03808175
:102F600080688083E0910B03F0910C0380818F7D5A
:102F700080830FEE12E0C0E0D0E0CE010E94221E5E
:102F8000F80181938F012196CA30D105B1F7809164
:102F9000F6028F3118F081E08093F6028091F702FB
:102FA000809378028091F8028093A602C0E08C2F73
:102FB0000E946914CF5FCA30D1F764E670E080E008
:102FC00090E00E94561581E00E94E7148091F30280
:102FD000813021F48BE291E00E9420140E94901530
:102FE0006093DF027093E0028093E1029093E2022B
:102FF0001092A602DEE28AE0B82E89EF92E00E94EB
:1030000076021816190614F40E9457070E949015AC
:103010000091E3021091E4022091E5023091E60272
:10302000DC01CB01801B910BA20BB30B4497A105D4
:10303000B10550F180915E028130E1F40E9490155B
:1030400000915A0210915B0220915C0230915D0266
:10305000AB01BC01401B510B620B730B80915802FA
:1030600090915902A0E0B0E084179507A607B70732
:1030700008F423C10E9490156093E3027093E40268
:103080008093E5029093E6020E9490150091E7027A
:103090001091E8022091E9023091EA02DC01CB01B3
:1030A000801B910BA20BB30B883C9105A105B105C8
:1030B00008F4A1C0C0E08091F602C81708F091C0E2
:1030C0008091A602813009F07EC08091F5028111C5
:1030D00026C0DC9FF0011124E858FD4F80916C025E
:1030E00090916D02A0916E02B0916F02828B938BD2
:1030F000A48BB58B8091700290917102A0917202A5
:10310000B0917302868B978BA08FB18F80917402E0
:1031100090917502A0917602B091770227C081301C
:1031200049F5DC9FF0011124E858FD4F80916002C1
:1031300090916102A0916202B0916302828B938BA5
:10314000A48BB58B8091640290916502A091660278
:10315000B0916702868B978BA08FB18F80916802A8
:1031600090916902A0916A02B0916B02828F938F55
:10317000A48FB58F8091C7029091C8028F3FFFEF57
:103180009F0739F0DC9FF0011124E858FD4F978F1D
:10319000868F80915F028130B1F4DC9FF0011124B1
:1031A000E858FD4FC68CD78CE28CF38C048D158DBE
:1031B00026893789408D518D6289738984899589E3
:1031C000A0800E94CB1580915F02823041F4DC9F89
:1031D000F0011124E858FD4F80810E941215CF5F45
:1031E0006ACF0E9490156093E7027093E802809383
:1031F000E9029093EA020E9490150091EB0210916F
:10320000EC022091ED023091EE02DC01CB01801B3B
:10321000910BA20BB30B883E9340A105B10508F4B6
:1032200049C00E94F5130E949C150E9490150091C0
:10323000AB021091AC022091AD023091AE02DC01E4
:10324000CB01801B910BA20BB30B89389341A105D5
:10325000B10530F08091A602813011F41092A602DF
:10326000C0E08091F602C817D8F40E949015DC9F48
:10327000F0011124E858FD4F02811381248135812A
:10328000DC01CB01801B910BA20BB30B893893415E
:10329000A105B10518F08181811115C0CF5FE1CF83
:1032A0000E9490156093EB027093EC028093ED0204
:1032B0009093EE020E941603A0CE80E00E945C1361
:1032C00010925E02D7CEB18288EC90E00E9420037B
:1032D000E5CFEE0FFF1F0590F491E02D09945058B3
:1032E000BB27AA270E9487190C94311B0E94F81A49
:1032F00038F00E94FF1A20F039F49F3F19F426F4A9
:103300000C94F51A0EF4E095E7FB0C94EF1AE92FF4
:103310000E94561B58F3BA17620773078407950774
:1033200020F079F4A6F50C94781B0EF4E0950B2EA2
:10333000BA2FA02D0B01B90190010C01CA01A00107
:103340001124FF27591B99F0593F50F4503E68F162
:103350001A16F040A22F232F342F4427585FF3CFA3
:10336000469537952795A795F0405395C9F77EF474
:103370001F16BA0B620B730B840BBAF09150A1F0BD
:10338000FF0FBB1F661F771F881FC2F70EC0BA0F43
:10339000621F731F841F48F4879577956795B795CB
:1033A000F7959E3F08F0B0CF9395880F08F09927C6
:1033B000EE0F9795879508950E94CB1A08F481E047
:1033C00008950E94081BE3950C94421B0E94FA1971
:1033D0000C94311B0E94FF1A58F00E94F81A40F01A
:1033E00029F45F3F29F00C94EF1A51110C94791BCA
:1033F0000C94F51A0E94561B68F39923B1F35523D8
:1034000091F3951B550BBB27AA27621773078407F7
:1034100038F09F5F5F4F220F331F441FAA1FA9F38D
:1034200035D00E2E3AF0E0E832D091505040E6957B
:10343000001CCAF72BD0FE2F29D0660F771F881FDC
:10344000BB1F261737074807AB07B0E809F0BB0BCF
:10345000802DBF01FF2793585F4F3AF09E3F5105E3
:1034600078F00C94EF1A0C94791B5F3FE4F3983ECC
:10347000D4F3869577956795B795F7959F5FC9F7CC
:10348000880F911D9695879597F90895E1E0660F4D
:10349000771F881FBB1F621773078407BA0720F0C6
:1034A000621B730B840BBA0BEE1F88F7E09508952F
:1034B0000E945F1A6894B1110C94791B08950E94C0
:1034C0005E1B88F09F5798F0B92F9927B751B0F03D
:1034D000E1F0660F771F881F991F1AF0BA95C9F798
:1034E00014C0B13091F00E94781BB1E008950C94A3
:1034F000781B672F782F8827B85F39F0B93FCCF356
:10350000869577956795B395D9F73EF49095809514
:10351000709561957F4F8F4F9F4F0895E89409C034
:1035200097FB3EF490958095709561957F4F8F4FF6
:103530009F4F9923A9F0F92F96E9BB279395F6950C
:10354000879577956795B795F111F8CFFAF4BB0F8A
:1035500011F460FF1BC06F5F7F4F8F4F9F4F16C0EE
:10356000882311F096E911C0772321F09EE8872F78
:10357000762F05C0662371F096E8862F70E060E034
:103580002AF09A95660F771F881FDAF7880F9695AD
:10359000879597F90895990F0008550FAA0BE0E851
:1035A000FEEF16161706E807F907C0F01216130605
:1035B000E407F50798F0621B730B840B950B39F445
:1035C0000A2661F0232B242B252B21F408950A26AB
:1035D00009F4A140A6958FEF811D811D089597F9EB
:1035E0009F6780E870E060E008959FEF80EC0895A9
:1035F00000240A94161617061806090608950024D2
:103600000A94121613061406050608950C94F51A6A
:103610000E945E1BD8F3E894E0E0BB279F57F0F0D0
:103620002AED3FE049EC06C0EE0FBB0F661F771F87
:10363000881F28F0B23A62077307840728F0B25A4D
:10364000620B730B840BE3959A9572F7803830F414
:103650009A95BB0F661F771F881FD2F790480C946E
:10366000F01C092E0394000C11F4882352F0BB0FB8
:1036700040F4BF2B11F460FF04C06F5F7F4F8F4F8A
:103680009F4F0895EF93E0FF07C0A2EA2AED3FE0C5
:1036900049EC5FEB0E9487190E94311B0F90039445
:1036A00001FC9058EEE7F0E00C942A1D57FD90586D
:1036B000440F551F59F05F3F71F04795880F97FBF6
:1036C000991F61F09F3F79F08795089512161306B0
:1036D0001406551FF2CF4695F1DF08C016161706DF
:1036E0001806991FF1CF8695710561050894089514
:1036F000E894BB2766277727CB0197F908950E94A6
:10370000CB1A08F48FEF08950E94971B0C94311B7D
:103710000E94F81A38F00E94FF1A20F0952311F049
:103720000C94EF1A0C94F51A11240C94791B0E9436
:10373000561B70F3959FC1F3950F50E0551F629F84
:10374000F001729FBB27F00DB11D639FAA27F00DFA
:10375000B11DAA1F649F6627B00DA11D661F829F21
:103760002227B00DA11D621F739FB00DA11D621F06
:10377000839FA00D611D221F749F3327A00D611D23
:10378000231F849F600D211D822F762F6A2F112405
:103790009F5750409AF0F1F088234AF0EE0FFF1F38
:1037A000BB1F661F771F881F91505040A9F79E3F8F
:1037B000510580F00C94EF1A0C94791B5F3FE4F3F1
:1037C000983ED4F3869577956795B795F795E795E5
:1037D0009F5FC1F7FE2B880F911D9695879597F9EE
:1037E0000895FA01EE0FFF1F309621053105A1F172
:1037F0006115710561F48038BFE39B0749F1689456
:103800009038810561F08038BFEF9B0741F0992324
:103810004AF5FF3FE1053105210519F1E8940894C7
:10382000E795D901AA2329F4AB2FBE2FF85FD0F377
:1038300010C0FF5F70F4A695E0F7F73950F019F06B
:10384000FF3A38F49F779F930DD00F9007FC905864
:10385000089546F00C94F51A60E070E080E89FE36C
:1038600008954FE79F775F934F933F932F930E9465
:10387000881D2F913F914F915F910E94841B0C9462
:10388000BC1C9F930E94081B0F9007FCEE5F0C94DA
:10389000421B19F416F40C94F51A0C94EE1C0E94B9
:1038A0005E1BB8F39923C9F3B6F39F57550B87FFF7
:1038B0000E94FC1C0024A0E640EA90018058569526
:1038C000979528F4805C660F771F881F20F02617D5
:1038D0003707480730F4621B730B840B202931290A
:1038E0004A2BA69517940794202531254A2758F787
:1038F000660F771F881F20F026173707480730F418
:10390000620B730B840B200D311D411DA09581F7B7
:10391000B901842F9158880F969587950895DF9364
:10392000D92F0E94081BE695D7952AED3FE049E480
:103930005FE3B33A6207730784079507D7953AF0B8
:10394000A2EA49EC90680E9487190E94311BECE9B9
:10395000F0E00E942A1DDD0F13F00E943E1DDD0FD6
:103960000BF49058DF91089529F416F00C94EF1A97
:103970000C94781B0C94F51A0E945E1BA8F39638E1
:10398000A0F707F80F92E8942BE33AEA48EB5FE7D9
:103990000E949A1B0F920F920F924DB75EB70F9233
:1039A0000E94D01DEFEBF0E00E94031D4F915F914C
:1039B000EF91FF91E595EE1FFF1F49F0FE57E0687C
:1039C0004427EE0F441FFA95E1F74195550B0E94ED
:1039D0004A1D0F9007FE0C943E1D08959F3F31F045
:1039E000915020F4879577956795B795880F911D2D
:1039F0009695879597F9089591505040660F771FD7
:103A0000881FD2F70895DF93CF931F930F93FF92F0
:103A1000EF92DF927B018C01689406C0DA2EEF01F1
:103A20000E94971BFE01E894A5912591359145913F
:103A30005591A6F3EF010E948719FE019701A80195
:103A4000DA9469F7DF90EF90FF900F911F91CF917B
:103A5000DF9108959F938F937F936F93FF93EF93DD
:103A60009B01AC010E94841BEF91FF910E94031DFA
:103A70002F913F914F915F910C94841B9B01AC015E
:103A800060E070E080E89FE30C94E6190C94EF1A74
:103A90000C94EE1C0E945E1BD8F39923C9F3940F7B
:103AA000511DA3F39150504094F059F0882332F007
:103AB000660F771F881F91505040C1F79E3F5105F8
:103AC0002CF7880F911D9695879597F908955F3F7C
:103AD000ACF0983E9CF0BB27869577956795B79597
:103AE00008F4B1609395C1F7BB0F58F711F460FF6C
:103AF000E8CF6F5F7F4F8F4F9F4FE3CF0C94791BC1
:103B000016F00C94EE1C0C94F51A68940C94EF1AB1
:103B10000E945E1BA8F39923C1F3AEF3DF93CF930A
:103B20001F930F93FF92C92FDD2788232AF0219737
:103B3000660F771F881FDAF720E030E040E85FEB80
:103B40009FE3883920F0803E38F021968F770E94DD
:103B50007019E7EEF0E004C00E947019E4E1F1E0B2
:103B60000E94031D8B01BE01EC01FB2E6F577109F2
:103B70007595771F880B990B0E94901A28E132E700
:103B800041E35FE30E94971BAF2D9801AE01FF90C8
:103B90000F911F91CF91DF910E9487190C94311BD7
:103BA000FA01DC01AA0FBB1F9B01AC01BF5728F42F
:103BB000222733274427507820C0B75190F4AB2FE9
:103BC0000024469537952795011CA395D2F3002034
:103BD00071F0220F331F441FB395DAF30ED00C940B
:103BE0006F1961307105A0E88A07B94630F49B016E
:103BF000AC016627772788279078309621F02083BC
:103C0000318342835383089581E090E0F8940C94CB
:103C1000381EFB01DC0102C001900D924150504062
:103C2000D8F70895FB01DC018D91019080190110F6
:103C3000D9F3990B0895FB01DC0105900D9200204A
:103C4000E1F70895F999FECF92BD81BDF89A9927C1
:103C500080B50895262FF999FECF1FBA92BD81BD78
:103C600020BD0FB6F894FA9AF99A0FBE01960895FE
:043C7000F894FFCFF6
:103C74000000EB03800000000000AD022902760280
:103C840054026802F4024643005347004152005470
:103C94004B005444004C44005053004D435F69733F
:083CA4005F5245414459000044
:00000001FF
